{
  "_format": "hh-sol-artifact-1",
  "contractName": "mintContract",
  "sourceName": "contracts/mintContract.sol",
  "abi": [
    {
      "inputs": [],
      "stateMutability": "nonpayable",
      "type": "constructor"
    },
    {
      "anonymous": false,
      "inputs": [
        {
          "indexed": true,
          "internalType": "address",
          "name": "owner",
          "type": "address"
        },
        {
          "indexed": true,
          "internalType": "address",
          "name": "approved",
          "type": "address"
        },
        {
          "indexed": true,
          "internalType": "uint256",
          "name": "tokenId",
          "type": "uint256"
        }
      ],
      "name": "Approval",
      "type": "event"
    },
    {
      "anonymous": false,
      "inputs": [
        {
          "indexed": true,
          "internalType": "address",
          "name": "owner",
          "type": "address"
        },
        {
          "indexed": true,
          "internalType": "address",
          "name": "operator",
          "type": "address"
        },
        {
          "indexed": false,
          "internalType": "bool",
          "name": "approved",
          "type": "bool"
        }
      ],
      "name": "ApprovalForAll",
      "type": "event"
    },
    {
      "anonymous": false,
      "inputs": [
        {
          "indexed": true,
          "internalType": "address",
          "name": "previousOwner",
          "type": "address"
        },
        {
          "indexed": true,
          "internalType": "address",
          "name": "newOwner",
          "type": "address"
        }
      ],
      "name": "OwnershipTransferred",
      "type": "event"
    },
    {
      "anonymous": false,
      "inputs": [
        {
          "indexed": false,
          "internalType": "uint256",
          "name": "id",
          "type": "uint256"
        },
        {
          "indexed": true,
          "internalType": "address",
          "name": "buyer",
          "type": "address"
        },
        {
          "indexed": false,
          "internalType": "uint256",
          "name": "cost",
          "type": "uint256"
        },
        {
          "indexed": true,
          "internalType": "string",
          "name": "tokenURIMP4",
          "type": "string"
        },
        {
          "indexed": true,
          "internalType": "string",
          "name": "tokenURIPNG",
          "type": "string"
        },
        {
          "indexed": false,
          "internalType": "uint256",
          "name": "timestamp",
          "type": "uint256"
        }
      ],
      "name": "Sale",
      "type": "event"
    },
    {
      "anonymous": false,
      "inputs": [
        {
          "indexed": true,
          "internalType": "address",
          "name": "from",
          "type": "address"
        },
        {
          "indexed": true,
          "internalType": "address",
          "name": "to",
          "type": "address"
        },
        {
          "indexed": true,
          "internalType": "uint256",
          "name": "tokenId",
          "type": "uint256"
        }
      ],
      "name": "Transfer",
      "type": "event"
    },
    {
      "inputs": [],
      "name": "_tokenIdCounter",
      "outputs": [
        {
          "internalType": "uint256",
          "name": "_value",
          "type": "uint256"
        }
      ],
      "stateMutability": "view",
      "type": "function"
    },
    {
      "inputs": [
        {
          "internalType": "address[]",
          "name": "_beneficiaries",
          "type": "address[]"
        }
      ],
      "name": "addManyToWhitelist",
      "outputs": [],
      "stateMutability": "nonpayable",
      "type": "function"
    },
    {
      "inputs": [
        {
          "internalType": "address",
          "name": "_beneficiary",
          "type": "address"
        }
      ],
      "name": "addToWhitelist",
      "outputs": [],
      "stateMutability": "nonpayable",
      "type": "function"
    },
    {
      "inputs": [
        {
          "internalType": "address",
          "name": "to",
          "type": "address"
        },
        {
          "internalType": "uint256",
          "name": "tokenId",
          "type": "uint256"
        }
      ],
      "name": "approve",
      "outputs": [],
      "stateMutability": "nonpayable",
      "type": "function"
    },
    {
      "inputs": [
        {
          "internalType": "address",
          "name": "owner",
          "type": "address"
        }
      ],
      "name": "balanceOf",
      "outputs": [
        {
          "internalType": "uint256",
          "name": "",
          "type": "uint256"
        }
      ],
      "stateMutability": "view",
      "type": "function"
    },
    {
      "inputs": [
        {
          "internalType": "uint256",
          "name": "tokenId",
          "type": "uint256"
        }
      ],
      "name": "burn",
      "outputs": [],
      "stateMutability": "nonpayable",
      "type": "function"
    },
    {
      "inputs": [],
      "name": "checkStage",
      "outputs": [
        {
          "internalType": "enum mintContract.Stage",
          "name": "stage",
          "type": "uint8"
        }
      ],
      "stateMutability": "view",
      "type": "function"
    },
    {
      "inputs": [
        {
          "internalType": "uint256",
          "name": "tokenId",
          "type": "uint256"
        }
      ],
      "name": "getApproved",
      "outputs": [
        {
          "internalType": "address",
          "name": "",
          "type": "address"
        }
      ],
      "stateMutability": "view",
      "type": "function"
    },
    {
      "inputs": [],
      "name": "getMintRate",
      "outputs": [
        {
          "internalType": "uint256",
          "name": "",
          "type": "uint256"
        }
      ],
      "stateMutability": "view",
      "type": "function"
    },
    {
      "inputs": [],
      "name": "getMinted",
      "outputs": [
        {
          "components": [
            {
              "internalType": "uint256",
              "name": "id",
              "type": "uint256"
            },
            {
              "internalType": "address",
              "name": "buyer",
              "type": "address"
            },
            {
              "internalType": "uint256",
              "name": "cost",
              "type": "uint256"
            },
            {
              "internalType": "string",
              "name": "videoURI",
              "type": "string"
            },
            {
              "internalType": "string",
              "name": "imageURI",
              "type": "string"
            },
            {
              "internalType": "uint256",
              "name": "timestamp",
              "type": "uint256"
            }
          ],
          "internalType": "struct mintContract.SaleStruct[]",
          "name": "",
          "type": "tuple[]"
        }
      ],
      "stateMutability": "view",
      "type": "function"
    },
    {
      "inputs": [],
      "name": "getMintedTknsAmt",
      "outputs": [
        {
          "internalType": "uint256",
          "name": "",
          "type": "uint256"
        }
      ],
      "stateMutability": "view",
      "type": "function"
    },
    {
      "inputs": [
        {
          "internalType": "address",
          "name": "_owner",
          "type": "address"
        }
      ],
      "name": "getTokenIdsOfOwner",
      "outputs": [
        {
          "internalType": "uint256[]",
          "name": "",
          "type": "uint256[]"
        }
      ],
      "stateMutability": "view",
      "type": "function"
    },
    {
      "inputs": [
        {
          "internalType": "uint256",
          "name": "tokenid",
          "type": "uint256"
        }
      ],
      "name": "getURIMP4",
      "outputs": [
        {
          "internalType": "string",
          "name": "",
          "type": "string"
        }
      ],
      "stateMutability": "view",
      "type": "function"
    },
    {
      "inputs": [
        {
          "internalType": "uint256",
          "name": "tokenid",
          "type": "uint256"
        }
      ],
      "name": "getURISVG",
      "outputs": [
        {
          "internalType": "string",
          "name": "",
          "type": "string"
        }
      ],
      "stateMutability": "view",
      "type": "function"
    },
    {
      "inputs": [
        {
          "internalType": "address",
          "name": "winner",
          "type": "address"
        },
        {
          "internalType": "uint256",
          "name": "_tokenIdToGiveaway",
          "type": "uint256"
        }
      ],
      "name": "giveAway",
      "outputs": [],
      "stateMutability": "nonpayable",
      "type": "function"
    },
    {
      "inputs": [
        {
          "internalType": "address",
          "name": "owner",
          "type": "address"
        },
        {
          "internalType": "address",
          "name": "operator",
          "type": "address"
        }
      ],
      "name": "isApprovedForAll",
      "outputs": [
        {
          "internalType": "bool",
          "name": "",
          "type": "bool"
        }
      ],
      "stateMutability": "view",
      "type": "function"
    },
    {
      "inputs": [],
      "name": "maxTokens",
      "outputs": [
        {
          "internalType": "uint256",
          "name": "",
          "type": "uint256"
        }
      ],
      "stateMutability": "view",
      "type": "function"
    },
    {
      "inputs": [],
      "name": "maxTokensPhaseFour",
      "outputs": [
        {
          "internalType": "uint256",
          "name": "",
          "type": "uint256"
        }
      ],
      "stateMutability": "view",
      "type": "function"
    },
    {
      "inputs": [],
      "name": "maxTokensPhaseOne",
      "outputs": [
        {
          "internalType": "uint256",
          "name": "",
          "type": "uint256"
        }
      ],
      "stateMutability": "view",
      "type": "function"
    },
    {
      "inputs": [],
      "name": "maxTokensPhaseThree",
      "outputs": [
        {
          "internalType": "uint256",
          "name": "",
          "type": "uint256"
        }
      ],
      "stateMutability": "view",
      "type": "function"
    },
    {
      "inputs": [],
      "name": "maxTokensPhaseTwo",
      "outputs": [
        {
          "internalType": "uint256",
          "name": "",
          "type": "uint256"
        }
      ],
      "stateMutability": "view",
      "type": "function"
    },
    {
      "inputs": [],
      "name": "mintRate",
      "outputs": [
        {
          "internalType": "uint256",
          "name": "",
          "type": "uint256"
        }
      ],
      "stateMutability": "view",
      "type": "function"
    },
    {
      "inputs": [],
      "name": "mp4Endpoint",
      "outputs": [
        {
          "internalType": "string",
          "name": "",
          "type": "string"
        }
      ],
      "stateMutability": "view",
      "type": "function"
    },
    {
      "inputs": [],
      "name": "mp4Extension",
      "outputs": [
        {
          "internalType": "string",
          "name": "",
          "type": "string"
        }
      ],
      "stateMutability": "view",
      "type": "function"
    },
    {
      "inputs": [],
      "name": "name",
      "outputs": [
        {
          "internalType": "string",
          "name": "",
          "type": "string"
        }
      ],
      "stateMutability": "view",
      "type": "function"
    },
    {
      "inputs": [],
      "name": "openingTime",
      "outputs": [
        {
          "internalType": "uint256",
          "name": "",
          "type": "uint256"
        }
      ],
      "stateMutability": "view",
      "type": "function"
    },
    {
      "inputs": [],
      "name": "owner",
      "outputs": [
        {
          "internalType": "address",
          "name": "",
          "type": "address"
        }
      ],
      "stateMutability": "view",
      "type": "function"
    },
    {
      "inputs": [
        {
          "internalType": "uint256",
          "name": "tokenId",
          "type": "uint256"
        }
      ],
      "name": "ownerOf",
      "outputs": [
        {
          "internalType": "address",
          "name": "",
          "type": "address"
        }
      ],
      "stateMutability": "view",
      "type": "function"
    },
    {
      "inputs": [],
      "name": "random",
      "outputs": [
        {
          "internalType": "uint256",
          "name": "",
          "type": "uint256"
        }
      ],
      "stateMutability": "view",
      "type": "function"
    },
    {
      "inputs": [],
      "name": "renounceOwnership",
      "outputs": [],
      "stateMutability": "nonpayable",
      "type": "function"
    },
    {
      "inputs": [],
      "name": "safeMint",
      "outputs": [],
      "stateMutability": "payable",
      "type": "function"
    },
    {
      "inputs": [
        {
          "internalType": "address",
          "name": "from",
          "type": "address"
        },
        {
          "internalType": "address",
          "name": "to",
          "type": "address"
        },
        {
          "internalType": "uint256",
          "name": "tokenId",
          "type": "uint256"
        }
      ],
      "name": "safeTransferFrom",
      "outputs": [],
      "stateMutability": "nonpayable",
      "type": "function"
    },
    {
      "inputs": [
        {
          "internalType": "address",
          "name": "from",
          "type": "address"
        },
        {
          "internalType": "address",
          "name": "to",
          "type": "address"
        },
        {
          "internalType": "uint256",
          "name": "tokenId",
          "type": "uint256"
        },
        {
          "internalType": "bytes",
          "name": "_data",
          "type": "bytes"
        }
      ],
      "name": "safeTransferFrom",
      "outputs": [],
      "stateMutability": "nonpayable",
      "type": "function"
    },
    {
      "inputs": [
        {
          "internalType": "address",
          "name": "operator",
          "type": "address"
        },
        {
          "internalType": "bool",
          "name": "approved",
          "type": "bool"
        }
      ],
      "name": "setApprovalForAll",
      "outputs": [],
      "stateMutability": "nonpayable",
      "type": "function"
    },
    {
      "inputs": [
        {
          "internalType": "bytes4",
          "name": "interfaceId",
          "type": "bytes4"
        }
      ],
      "name": "supportsInterface",
      "outputs": [
        {
          "internalType": "bool",
          "name": "",
          "type": "bool"
        }
      ],
      "stateMutability": "view",
      "type": "function"
    },
    {
      "inputs": [],
      "name": "svgEndpoint",
      "outputs": [
        {
          "internalType": "string",
          "name": "",
          "type": "string"
        }
      ],
      "stateMutability": "view",
      "type": "function"
    },
    {
      "inputs": [],
      "name": "svgExtension",
      "outputs": [
        {
          "internalType": "string",
          "name": "",
          "type": "string"
        }
      ],
      "stateMutability": "view",
      "type": "function"
    },
    {
      "inputs": [],
      "name": "symbol",
      "outputs": [
        {
          "internalType": "string",
          "name": "",
          "type": "string"
        }
      ],
      "stateMutability": "view",
      "type": "function"
    },
    {
      "inputs": [
        {
          "internalType": "uint256",
          "name": "tokenId",
          "type": "uint256"
        }
      ],
      "name": "tokenURI",
      "outputs": [
        {
          "internalType": "string",
          "name": "",
          "type": "string"
        }
      ],
      "stateMutability": "view",
      "type": "function"
    },
    {
      "inputs": [
        {
          "internalType": "address",
          "name": "from",
          "type": "address"
        },
        {
          "internalType": "address",
          "name": "to",
          "type": "address"
        },
        {
          "internalType": "uint256",
          "name": "tokenId",
          "type": "uint256"
        }
      ],
      "name": "transferFrom",
      "outputs": [],
      "stateMutability": "nonpayable",
      "type": "function"
    },
    {
      "inputs": [
        {
          "internalType": "address",
          "name": "newOwner",
          "type": "address"
        }
      ],
      "name": "transferOwnership",
      "outputs": [],
      "stateMutability": "nonpayable",
      "type": "function"
    },
    {
      "inputs": [
        {
          "internalType": "address",
          "name": "",
          "type": "address"
        }
      ],
      "name": "whitelist",
      "outputs": [
        {
          "internalType": "bool",
          "name": "",
          "type": "bool"
        }
      ],
      "stateMutability": "view",
      "type": "function"
    }
  ],
  "bytecode": "0x6080604052636451863b600b5567016345785d8a0000600c556006600d556001600e556002600f556004601055600660115560405180608001604052806044815260200162005c8c60449139601290805190602001906200006292919062000314565b5060405180608001604052806044815260200162005c4860449139601390805190602001906200009492919062000314565b506040518060400160405280600481526020017f2e7376670000000000000000000000000000000000000000000000000000000081525060149080519060200190620000e292919062000314565b506040518060400160405280600481526020017f2e6d703400000000000000000000000000000000000000000000000000000000815250601590805190602001906200013092919062000314565b503480156200013e57600080fd5b506040518060400160405280600781526020017f53717565657a65000000000000000000000000000000000000000000000000008152506040518060400160405280600281526020017f53510000000000000000000000000000000000000000000000000000000000008152508160009080519060200190620001c392919062000314565b508060019080519060200190620001dc92919062000314565b505050620001ff620001f36200024660201b60201c565b6200024e60201b60201c565b33600960006101000a81548173ffffffffffffffffffffffffffffffffffffffff021916908373ffffffffffffffffffffffffffffffffffffffff16021790555062000429565b600033905090565b6000600660009054906101000a900473ffffffffffffffffffffffffffffffffffffffff16905081600660006101000a81548173ffffffffffffffffffffffffffffffffffffffff021916908373ffffffffffffffffffffffffffffffffffffffff1602179055508173ffffffffffffffffffffffffffffffffffffffff168173ffffffffffffffffffffffffffffffffffffffff167f8be0079c531659141344cd1fd0a4f28419497f9722a3daafe3b4186f6b6457e060405160405180910390a35050565b8280546200032290620003c4565b90600052602060002090601f01602090048101928262000346576000855562000392565b82601f106200036157805160ff191683800117855562000392565b8280016001018555821562000392579182015b828111156200039157825182559160200191906001019062000374565b5b509050620003a19190620003a5565b5090565b5b80821115620003c0576000816000905550600101620003a6565b5090565b60006002820490506001821680620003dd57607f821691505b60208210811415620003f457620003f3620003fa565b5b50919050565b7f4e487b7100000000000000000000000000000000000000000000000000000000600052602260045260246000fd5b61580f80620004396000396000f3fe6080604052600436106102515760003560e01c806384c4bd4b11610139578063b7a8807c116100b6578063ca8001441161007a578063ca800144146108c1578063dc9bf80b146108ea578063e43252d714610915578063e83157421461093e578063e985e9c514610969578063f2fde38b146109a657610251565b8063b7a8807c146107da578063b88d4fde14610805578063bcdaf9251461082e578063c87b56dd14610859578063ca0dcf161461089657610251565b806396f0bd61116100fd57806396f0bd61146106f35780639b19251a1461071e578063a22cb4651461075b578063ac72200d14610784578063b3d267b8146107af57610251565b806384c4bd4b1461060c5780638becce01146106375780638c10671c146106745780638da5cb5b1461069d57806395d89b41146106c857610251565b80632a46d1bd116101d25780635ec01e4d116101965780635ec01e4d1461051b5780636352211e146105465780636871ee401461058357806370a082311461058d578063715018a6146105ca5780637f93c751146105e157610251565b80632a46d1bd146104365780632a4a6c551461046157806340fdbffb1461049e57806342842e0e146104c957806342966c68146104f257610251565b80630ec0ce47116102195780630ec0ce4714610361578063135f2be41461038c578063188bd5aa146103b75780631eeb84b2146103e257806323b872dd1461040d57610251565b806301ffc9a71461025657806306fdde0314610293578063081812fc146102be57806308a5d0ad146102fb578063095ea7b314610338575b600080fd5b34801561026257600080fd5b5061027d60048036038101906102789190614038565b6109cf565b60405161028a9190614876565b60405180910390f35b34801561029f57600080fd5b506102a8610ab1565b6040516102b591906148ac565b60405180910390f35b3480156102ca57600080fd5b506102e560048036038101906102e0919061408a565b610b43565b6040516102f291906147cb565b60405180910390f35b34801561030757600080fd5b50610322600480360381019061031d9190613e50565b610bc8565b60405161032f9190614854565b60405180910390f35b34801561034457600080fd5b5061035f600480360381019061035a9190613fbb565b610dc6565b005b34801561036d57600080fd5b50610376610ede565b6040516103839190614bae565b60405180910390f35b34801561039857600080fd5b506103a1610ee4565b6040516103ae91906148ac565b60405180910390f35b3480156103c357600080fd5b506103cc610f72565b6040516103d99190614bae565b60405180910390f35b3480156103ee57600080fd5b506103f7610f88565b60405161040491906148ac565b60405180910390f35b34801561041957600080fd5b50610434600480360381019061042f9190613eb5565b611016565b005b34801561044257600080fd5b5061044b611076565b6040516104589190614bae565b60405180910390f35b34801561046d57600080fd5b506104886004803603810190610483919061408a565b61107c565b60405161049591906148ac565b60405180910390f35b3480156104aa57600080fd5b506104b3611182565b6040516104c09190614bae565b60405180910390f35b3480156104d557600080fd5b506104f060048036038101906104eb9190613eb5565b611188565b005b3480156104fe57600080fd5b506105196004803603810190610514919061408a565b6111a8565b005b34801561052757600080fd5b50610530611204565b60405161053d9190614bae565b60405180910390f35b34801561055257600080fd5b5061056d6004803603810190610568919061408a565b611243565b60405161057a91906147cb565b60405180910390f35b61058b6112f5565b005b34801561059957600080fd5b506105b460048036038101906105af9190613e50565b611b06565b6040516105c19190614bae565b60405180910390f35b3480156105d657600080fd5b506105df611bbe565b005b3480156105ed57600080fd5b506105f6611c46565b6040516106039190614891565b60405180910390f35b34801561061857600080fd5b50610621611d76565b60405161062e9190614bae565b60405180910390f35b34801561064357600080fd5b5061065e6004803603810190610659919061408a565b611d82565b60405161066b91906148ac565b60405180910390f35b34801561068057600080fd5b5061069b60048036038101906106969190613ff7565b611e88565b005b3480156106a957600080fd5b506106b2611fbf565b6040516106bf91906147cb565b60405180910390f35b3480156106d457600080fd5b506106dd611fe9565b6040516106ea91906148ac565b60405180910390f35b3480156106ff57600080fd5b5061070861207b565b6040516107159190614bae565b60405180910390f35b34801561072a57600080fd5b5061074560048036038101906107409190613e50565b612085565b6040516107529190614876565b60405180910390f35b34801561076757600080fd5b50610782600480360381019061077d9190613f7f565b6120a5565b005b34801561079057600080fd5b506107996120bb565b6040516107a69190614832565b60405180910390f35b3480156107bb57600080fd5b506107c46122b2565b6040516107d19190614bae565b60405180910390f35b3480156107e657600080fd5b506107ef6122b8565b6040516107fc9190614bae565b60405180910390f35b34801561081157600080fd5b5061082c60048036038101906108279190613f04565b6122be565b005b34801561083a57600080fd5b50610843612320565b60405161085091906148ac565b60405180910390f35b34801561086557600080fd5b50610880600480360381019061087b919061408a565b6123ae565b60405161088d91906148ac565b60405180910390f35b3480156108a257600080fd5b506108ab6123c0565b6040516108b89190614bae565b60405180910390f35b3480156108cd57600080fd5b506108e860048036038101906108e39190613fbb565b6123c6565b005b3480156108f657600080fd5b506108ff612451565b60405161090c91906148ac565b60405180910390f35b34801561092157600080fd5b5061093c60048036038101906109379190613e50565b6124df565b005b34801561094a57600080fd5b506109536125b6565b6040516109609190614bae565b60405180910390f35b34801561097557600080fd5b50610990600480360381019061098b9190613e79565b6125bc565b60405161099d9190614876565b60405180910390f35b3480156109b257600080fd5b506109cd60048036038101906109c89190613e50565b612650565b005b60007f80ac58cd000000000000000000000000000000000000000000000000000000007bffffffffffffffffffffffffffffffffffffffffffffffffffffffff1916827bffffffffffffffffffffffffffffffffffffffffffffffffffffffff19161480610a9a57507f5b5e139f000000000000000000000000000000000000000000000000000000007bffffffffffffffffffffffffffffffffffffffffffffffffffffffff1916827bffffffffffffffffffffffffffffffffffffffffffffffffffffffff1916145b80610aaa5750610aa982612748565b5b9050919050565b606060008054610ac090614f77565b80601f0160208091040260200160405190810160405280929190818152602001828054610aec90614f77565b8015610b395780601f10610b0e57610100808354040283529160200191610b39565b820191906000526020600020905b815481529060010190602001808311610b1c57829003601f168201915b5050505050905090565b6000610b4e826127b2565b610b8d576040517f08c379a0000000000000000000000000000000000000000000000000000000008152600401610b8490614aae565b60405180910390fd5b6004600083815260200190815260200160002060009054906101000a900473ffffffffffffffffffffffffffffffffffffffff169050919050565b60606000610bd583611b06565b905060008167ffffffffffffffff811115610c19577f4e487b7100000000000000000000000000000000000000000000000000000000600052604160045260246000fd5b604051908082528060200260200182016040528015610c475781602001602082028036833780820191505090505b5090506000805b601680549050811015610dba578573ffffffffffffffffffffffffffffffffffffffff1660168281548110610cac577f4e487b7100000000000000000000000000000000000000000000000000000000600052603260045260246000fd5b906000526020600020906006020160010160009054906101000a900473ffffffffffffffffffffffffffffffffffffffff1673ffffffffffffffffffffffffffffffffffffffff161415610d9a5760168181548110610d34577f4e487b7100000000000000000000000000000000000000000000000000000000600052603260045260246000fd5b906000526020600020906006020160000154838381518110610d7f577f4e487b7100000000000000000000000000000000000000000000000000000000600052603260045260246000fd5b6020026020010181815250508180610d9690614fda565b9250505b81841415610da757610dba565b8080610db290614fda565b915050610c4e565b50819350505050919050565b6000610dd182611243565b90508073ffffffffffffffffffffffffffffffffffffffff168373ffffffffffffffffffffffffffffffffffffffff161415610e42576040517f08c379a0000000000000000000000000000000000000000000000000000000008152600401610e3990614b0e565b60405180910390fd5b8073ffffffffffffffffffffffffffffffffffffffff16610e6161281e565b73ffffffffffffffffffffffffffffffffffffffff161480610e905750610e8f81610e8a61281e565b6125bc565b5b610ecf576040517f08c379a0000000000000000000000000000000000000000000000000000000008152600401610ec6906149ae565b60405180910390fd5b610ed98383612826565b505050565b60105481565b60138054610ef190614f77565b80601f0160208091040260200160405190810160405280929190818152602001828054610f1d90614f77565b8015610f6a5780601f10610f3f57610100808354040283529160200191610f6a565b820191906000526020600020905b815481529060010190602001808311610f4d57829003601f168201915b505050505081565b600080610f7f60086128df565b90508091505090565b60128054610f9590614f77565b80601f0160208091040260200160405190810160405280929190818152602001828054610fc190614f77565b801561100e5780601f10610fe35761010080835404028352916020019161100e565b820191906000526020600020905b815481529060010190602001808311610ff157829003601f168201915b505050505081565b61102761102161281e565b826128ed565b611066576040517f08c379a000000000000000000000000000000000000000000000000000000000815260040161105d90614b4e565b60405180910390fd5b6110718383836129cb565b505050565b600e5481565b60606016805490506001836110919190614e3e565b1061109b57600080fd5b60166001836110aa9190614e3e565b815481106110e1577f4e487b7100000000000000000000000000000000000000000000000000000000600052603260045260246000fd5b906000526020600020906006020160040180546110fd90614f77565b80601f016020809104026020016040519081016040528092919081815260200182805461112990614f77565b80156111765780601f1061114b57610100808354040283529160200191611176565b820191906000526020600020905b81548152906001019060200180831161115957829003601f168201915b50505050509050919050565b600f5481565b6111a3838383604051806020016040528060008152506122be565b505050565b6111b96111b361281e565b826128ed565b6111f8576040517f08c379a00000000000000000000000000000000000000000000000000000000081526004016111ef90614b8e565b60405180910390fd5b61120181612c32565b50565b6000600a424460405160200161121b92919061479f565b6040516020818303038152906040528051906020012060001c61123e919061502d565b905090565b6000806002600084815260200190815260200160002060009054906101000a900473ffffffffffffffffffffffffffffffffffffffff169050600073ffffffffffffffffffffffffffffffffffffffff168173ffffffffffffffffffffffffffffffffffffffff1614156112ec576040517f08c379a00000000000000000000000000000000000000000000000000000000081526004016112e3906149ee565b60405180910390fd5b80915050919050565b600060019050600d548161130960086128df565b6113139190614d5d565b1115611354576040517f08c379a000000000000000000000000000000000000000000000000000000000815260040161134b90614b6e565b60405180910390fd5b600e548161136260086128df565b61136c9190614d5d565b1115806113845750600e5461138160086128df565b10155b6113c3576040517f08c379a00000000000000000000000000000000000000000000000000000000081526004016113ba90614a8e565b60405180910390fd5b600f54816113d160086128df565b6113db9190614d5d565b1115806113f35750600f546113f060086128df565b10155b611432576040517f08c379a000000000000000000000000000000000000000000000000000000000815260040161142990614a8e565b60405180910390fd5b6010548161144060086128df565b61144a9190614d5d565b111580611462575060105461145f60086128df565b10155b6114a1576040517f08c379a000000000000000000000000000000000000000000000000000000000815260040161149890614a8e565b60405180910390fd5b601154816114af60086128df565b6114b99190614d5d565b11156114fa576040517f08c379a00000000000000000000000000000000000000000000000000000000081526004016114f190614a8e565b60405180910390fd5b600c54816115089190614de4565b3414611549576040517f08c379a000000000000000000000000000000000000000000000000000000000815260040161154090614a6e565b60405180910390fd5b60006005811115611583577f4e487b7100000000000000000000000000000000000000000000000000000000600052602160045260246000fd5b61158b611c46565b60058111156115c3577f4e487b7100000000000000000000000000000000000000000000000000000000600052602160045260246000fd5b1415806116475750600580811115611604577f4e487b7100000000000000000000000000000000000000000000000000000000600052602160045260246000fd5b61160c611c46565b6005811115611644577f4e487b7100000000000000000000000000000000000000000000000000000000600052602160045260246000fd5b14155b611686576040517f08c379a000000000000000000000000000000000000000000000000000000000815260040161167d90614b2e565b60405180910390fd5b60005b818110156118c25761169b6008612c3e565b60006116a760086128df565b90506116b33382612c54565b60006116be82612c72565b9050600060128260156040516020016116d99392919061476e565b6040516020818303038152906040529050600060138360146040516020016117039392919061476e565b604051602081830303815290604052905061171e8483612e25565b60166040518060c001604052808681526020013373ffffffffffffffffffffffffffffffffffffffff1681526020013481526020018481526020018381526020014281525090806001815401808255809150506001900390600052602060002090600602016000909190919091506000820151816000015560208201518160010160006101000a81548173ffffffffffffffffffffffffffffffffffffffff021916908373ffffffffffffffffffffffffffffffffffffffff160217905550604082015181600201556060820151816003019080519060200190611803929190613c06565b506080820151816004019080519060200190611820929190613c06565b5060a0820151816005015550508060405161183b9190614733565b6040518091039020826040516118519190614733565b60405180910390203373ffffffffffffffffffffffffffffffffffffffff167fd0ff0e932b314f66b00e9a1e7acfeb31a69a9aa65959ae8e340048a977d037378734426040516118a393929190614bc9565b60405180910390a45050505080806118ba90614fda565b915050611689565b50600160058111156118fd577f4e487b7100000000000000000000000000000000000000000000000000000000600052602160045260246000fd5b611905611c46565b600581111561193d577f4e487b7100000000000000000000000000000000000000000000000000000000600052602160045260246000fd5b14156119535767016345785d8a0000600c819055505b6002600581111561198d577f4e487b7100000000000000000000000000000000000000000000000000000000600052602160045260246000fd5b611995611c46565b60058111156119cd577f4e487b7100000000000000000000000000000000000000000000000000000000600052602160045260246000fd5b14156119e357670214e8348c4f0000600c819055505b60036005811115611a1d577f4e487b7100000000000000000000000000000000000000000000000000000000600052602160045260246000fd5b611a25611c46565b6005811115611a5d577f4e487b7100000000000000000000000000000000000000000000000000000000600052602160045260246000fd5b1415611a73576702c68af0bb140000600c819055505b60046005811115611aad577f4e487b7100000000000000000000000000000000000000000000000000000000600052602160045260246000fd5b611ab5611c46565b6005811115611aed577f4e487b7100000000000000000000000000000000000000000000000000000000600052602160045260246000fd5b1415611b03576703782dace9d90000600c819055505b50565b60008073ffffffffffffffffffffffffffffffffffffffff168273ffffffffffffffffffffffffffffffffffffffff161415611b77576040517f08c379a0000000000000000000000000000000000000000000000000000000008152600401611b6e906149ce565b60405180910390fd5b600360008373ffffffffffffffffffffffffffffffffffffffff1673ffffffffffffffffffffffffffffffffffffffff168152602001908152602001600020549050919050565b611bc661281e565b73ffffffffffffffffffffffffffffffffffffffff16611be4611fbf565b73ffffffffffffffffffffffffffffffffffffffff1614611c3a576040517f08c379a0000000000000000000000000000000000000000000000000000000008152600401611c3190614ace565b60405180910390fd5b611c446000612e99565b565b6000600b54421015611c5b5760009050611d73565b600b544210158015611c775750600e54611c7560086128df565b105b15611c855760019050611d73565b600b544210158015611ca25750600e54611c9f60086128df565b10155b8015611cb85750600f54611cb660086128df565b105b15611cc65760029050611d73565b600b544210158015611ce35750600f54611ce060086128df565b10155b8015611cf95750601054611cf760086128df565b105b15611d075760039050611d73565b600b544210158015611d245750600f54611d2160086128df565b10155b8015611d3a5750601154611d3860086128df565b105b15611d485760029050611d73565b600b544210158015611d6457506006611d6160086128df565b10155b15611d725760059050611d73565b5b90565b60088060000154905081565b6060601680549050600183611d979190614e3e565b10611da157600080fd5b6016600183611db09190614e3e565b81548110611de7577f4e487b7100000000000000000000000000000000000000000000000000000000600052603260045260246000fd5b90600052602060002090600602016003018054611e0390614f77565b80601f0160208091040260200160405190810160405280929190818152602001828054611e2f90614f77565b8015611e7c5780601f10611e5157610100808354040283529160200191611e7c565b820191906000526020600020905b815481529060010190602001808311611e5f57829003601f168201915b50505050509050919050565b611e9061281e565b73ffffffffffffffffffffffffffffffffffffffff16611eae611fbf565b73ffffffffffffffffffffffffffffffffffffffff1614611f04576040517f08c379a0000000000000000000000000000000000000000000000000000000008152600401611efb90614ace565b60405180910390fd5b60005b8151811015611fbb576001600a6000848481518110611f4f577f4e487b7100000000000000000000000000000000000000000000000000000000600052603260045260246000fd5b602002602001015173ffffffffffffffffffffffffffffffffffffffff1673ffffffffffffffffffffffffffffffffffffffff16815260200190815260200160002060006101000a81548160ff0219169083151502179055508080611fb390614fda565b915050611f07565b5050565b6000600660009054906101000a900473ffffffffffffffffffffffffffffffffffffffff16905090565b606060018054611ff890614f77565b80601f016020809104026020016040519081016040528092919081815260200182805461202490614f77565b80156120715780601f1061204657610100808354040283529160200191612071565b820191906000526020600020905b81548152906001019060200180831161205457829003601f168201915b5050505050905090565b6000600c54905090565b600a6020528060005260406000206000915054906101000a900460ff1681565b6120b76120b061281e565b8383612f5f565b5050565b60606016805480602002602001604051908101604052809291908181526020016000905b828210156122a957838290600052602060002090600602016040518060c0016040529081600082015481526020016001820160009054906101000a900473ffffffffffffffffffffffffffffffffffffffff1673ffffffffffffffffffffffffffffffffffffffff1673ffffffffffffffffffffffffffffffffffffffff1681526020016002820154815260200160038201805461217c90614f77565b80601f01602080910402602001604051908101604052809291908181526020018280546121a890614f77565b80156121f55780601f106121ca576101008083540402835291602001916121f5565b820191906000526020600020905b8154815290600101906020018083116121d857829003601f168201915b5050505050815260200160048201805461220e90614f77565b80601f016020809104026020016040519081016040528092919081815260200182805461223a90614f77565b80156122875780601f1061225c57610100808354040283529160200191612287565b820191906000526020600020905b81548152906001019060200180831161226a57829003601f168201915b50505050508152602001600582015481525050815260200190600101906120df565b50505050905090565b60115481565b600b5481565b6122cf6122c961281e565b836128ed565b61230e576040517f08c379a000000000000000000000000000000000000000000000000000000000815260040161230590614b4e565b60405180910390fd5b61231a848484846130cc565b50505050565b6014805461232d90614f77565b80601f016020809104026020016040519081016040528092919081815260200182805461235990614f77565b80156123a65780601f1061237b576101008083540402835291602001916123a6565b820191906000526020600020905b81548152906001019060200180831161238957829003601f168201915b505050505081565b60606123b982613128565b9050919050565b600c5481565b6123ce61281e565b73ffffffffffffffffffffffffffffffffffffffff166123ec611fbf565b73ffffffffffffffffffffffffffffffffffffffff1614612442576040517f08c379a000000000000000000000000000000000000000000000000000000000815260040161243990614ace565b60405180910390fd5b61244d338383611188565b5050565b6015805461245e90614f77565b80601f016020809104026020016040519081016040528092919081815260200182805461248a90614f77565b80156124d75780601f106124ac576101008083540402835291602001916124d7565b820191906000526020600020905b8154815290600101906020018083116124ba57829003601f168201915b505050505081565b6124e761281e565b73ffffffffffffffffffffffffffffffffffffffff16612505611fbf565b73ffffffffffffffffffffffffffffffffffffffff161461255b576040517f08c379a000000000000000000000000000000000000000000000000000000000815260040161255290614ace565b60405180910390fd5b6001600a60008373ffffffffffffffffffffffffffffffffffffffff1673ffffffffffffffffffffffffffffffffffffffff16815260200190815260200160002060006101000a81548160ff02191690831515021790555050565b600d5481565b6000600560008473ffffffffffffffffffffffffffffffffffffffff1673ffffffffffffffffffffffffffffffffffffffff16815260200190815260200160002060008373ffffffffffffffffffffffffffffffffffffffff1673ffffffffffffffffffffffffffffffffffffffff16815260200190815260200160002060009054906101000a900460ff16905092915050565b61265861281e565b73ffffffffffffffffffffffffffffffffffffffff16612676611fbf565b73ffffffffffffffffffffffffffffffffffffffff16146126cc576040517f08c379a00000000000000000000000000000000000000000000000000000000081526004016126c390614ace565b60405180910390fd5b600073ffffffffffffffffffffffffffffffffffffffff168173ffffffffffffffffffffffffffffffffffffffff16141561273c576040517f08c379a0000000000000000000000000000000000000000000000000000000008152600401612733906148ee565b60405180910390fd5b61274581612e99565b50565b60007f01ffc9a7000000000000000000000000000000000000000000000000000000007bffffffffffffffffffffffffffffffffffffffffffffffffffffffff1916827bffffffffffffffffffffffffffffffffffffffffffffffffffffffff1916149050919050565b60008073ffffffffffffffffffffffffffffffffffffffff166002600084815260200190815260200160002060009054906101000a900473ffffffffffffffffffffffffffffffffffffffff1673ffffffffffffffffffffffffffffffffffffffff1614159050919050565b600033905090565b816004600083815260200190815260200160002060006101000a81548173ffffffffffffffffffffffffffffffffffffffff021916908373ffffffffffffffffffffffffffffffffffffffff160217905550808273ffffffffffffffffffffffffffffffffffffffff1661289983611243565b73ffffffffffffffffffffffffffffffffffffffff167f8c5be1e5ebec7d5bd14f71427d1e84f3dd0314c0f7b2291e5b200ac8c7c3b92560405160405180910390a45050565b600081600001549050919050565b60006128f8826127b2565b612937576040517f08c379a000000000000000000000000000000000000000000000000000000000815260040161292e9061498e565b60405180910390fd5b600061294283611243565b90508073ffffffffffffffffffffffffffffffffffffffff168473ffffffffffffffffffffffffffffffffffffffff1614806129b157508373ffffffffffffffffffffffffffffffffffffffff1661299984610b43565b73ffffffffffffffffffffffffffffffffffffffff16145b806129c257506129c181856125bc565b5b91505092915050565b8273ffffffffffffffffffffffffffffffffffffffff166129eb82611243565b73ffffffffffffffffffffffffffffffffffffffff1614612a41576040517f08c379a0000000000000000000000000000000000000000000000000000000008152600401612a389061490e565b60405180910390fd5b600073ffffffffffffffffffffffffffffffffffffffff168273ffffffffffffffffffffffffffffffffffffffff161415612ab1576040517f08c379a0000000000000000000000000000000000000000000000000000000008152600401612aa89061494e565b60405180910390fd5b612abc83838361327a565b612ac7600082612826565b6001600360008573ffffffffffffffffffffffffffffffffffffffff1673ffffffffffffffffffffffffffffffffffffffff1681526020019081526020016000206000828254612b179190614e3e565b925050819055506001600360008473ffffffffffffffffffffffffffffffffffffffff1673ffffffffffffffffffffffffffffffffffffffff1681526020019081526020016000206000828254612b6e9190614d5d565b92505081905550816002600083815260200190815260200160002060006101000a81548173ffffffffffffffffffffffffffffffffffffffff021916908373ffffffffffffffffffffffffffffffffffffffff160217905550808273ffffffffffffffffffffffffffffffffffffffff168473ffffffffffffffffffffffffffffffffffffffff167fddf252ad1be2c89b69c2b068fc378daa952ba7f163c4a11628f55a4df523b3ef60405160405180910390a4612c2d83838361327f565b505050565b612c3b81613437565b50565b6001816000016000828254019250508190555050565b612c6e82826040518060200160405280600081525061348a565b5050565b60606000821415612cba576040518060400160405280600181526020017f30000000000000000000000000000000000000000000000000000000000000008152509050612e20565b600082905060005b60008214612cec578080612cd590614fda565b915050600a82612ce59190614db3565b9150612cc2565b60008167ffffffffffffffff811115612d2e577f4e487b7100000000000000000000000000000000000000000000000000000000600052604160045260246000fd5b6040519080825280601f01601f191660200182016040528015612d605781602001600182028036833780820191505090505b50905060008290508593505b60008414612e1857600a84612d81919061502d565b6030612d8d9190614d5d565b60f81b8282612d9b90614f4d565b92508281518110612dd5577f4e487b7100000000000000000000000000000000000000000000000000000000600052603260045260246000fd5b60200101907effffffffffffffffffffffffffffffffffffffffffffffffffffffffffffff1916908160001a905350600a84612e119190614db3565b9350612d6c565b819450505050505b919050565b612e2e826127b2565b612e6d576040517f08c379a0000000000000000000000000000000000000000000000000000000008152600401612e6490614a0e565b60405180910390fd5b80600760008481526020019081526020016000209080519060200190612e94929190613c06565b505050565b6000600660009054906101000a900473ffffffffffffffffffffffffffffffffffffffff16905081600660006101000a81548173ffffffffffffffffffffffffffffffffffffffff021916908373ffffffffffffffffffffffffffffffffffffffff1602179055508173ffffffffffffffffffffffffffffffffffffffff168173ffffffffffffffffffffffffffffffffffffffff167f8be0079c531659141344cd1fd0a4f28419497f9722a3daafe3b4186f6b6457e060405160405180910390a35050565b8173ffffffffffffffffffffffffffffffffffffffff168373ffffffffffffffffffffffffffffffffffffffff161415612fce576040517f08c379a0000000000000000000000000000000000000000000000000000000008152600401612fc59061496e565b60405180910390fd5b80600560008573ffffffffffffffffffffffffffffffffffffffff1673ffffffffffffffffffffffffffffffffffffffff16815260200190815260200160002060008473ffffffffffffffffffffffffffffffffffffffff1673ffffffffffffffffffffffffffffffffffffffff16815260200190815260200160002060006101000a81548160ff0219169083151502179055508173ffffffffffffffffffffffffffffffffffffffff168373ffffffffffffffffffffffffffffffffffffffff167f17307eab39ab6107e8899845ad3d59bd9653f200f220920489ca2b5937696c31836040516130bf9190614876565b60405180910390a3505050565b6130d78484846129cb565b6130e3848484846134e5565b613122576040517f08c379a0000000000000000000000000000000000000000000000000000000008152600401613119906148ce565b60405180910390fd5b50505050565b6060613133826127b2565b613172576040517f08c379a000000000000000000000000000000000000000000000000000000000815260040161316990614a4e565b60405180910390fd5b600060076000848152602001908152602001600020805461319290614f77565b80601f01602080910402602001604051908101604052809291908181526020018280546131be90614f77565b801561320b5780601f106131e05761010080835404028352916020019161320b565b820191906000526020600020905b8154815290600101906020018083116131ee57829003601f168201915b50505050509050600061321c61367c565b9050600081511415613232578192505050613275565b60008251111561326757808260405160200161324f92919061474a565b60405160208183030381529060405292505050613275565b61327084613693565b925050505b919050565b505050565b61328a83838361373a565b60005b6016805490508110156134315781601682815481106132d5577f4e487b7100000000000000000000000000000000000000000000000000000000600052603260045260246000fd5b90600052602060002090600602016000015414801561338a57508373ffffffffffffffffffffffffffffffffffffffff1660168281548110613340577f4e487b7100000000000000000000000000000000000000000000000000000000600052603260045260246000fd5b906000526020600020906006020160010160009054906101000a900473ffffffffffffffffffffffffffffffffffffffff1673ffffffffffffffffffffffffffffffffffffffff16145b1561341e5782601682815481106133ca577f4e487b7100000000000000000000000000000000000000000000000000000000600052603260045260246000fd5b906000526020600020906006020160010160006101000a81548173ffffffffffffffffffffffffffffffffffffffff021916908373ffffffffffffffffffffffffffffffffffffffff160217905550613431565b808061342990614fda565b91505061328d565b50505050565b6134408161373f565b600060076000838152602001908152602001600020805461346090614f77565b905014613487576007600082815260200190815260200160002060006134869190613c8c565b5b50565b613494838361385c565b6134a160008484846134e5565b6134e0576040517f08c379a00000000000000000000000000000000000000000000000000000000081526004016134d7906148ce565b60405180910390fd5b505050565b60006135068473ffffffffffffffffffffffffffffffffffffffff16613a36565b1561366f578373ffffffffffffffffffffffffffffffffffffffff1663150b7a0261352f61281e565b8786866040518563ffffffff1660e01b815260040161355194939291906147e6565b602060405180830381600087803b15801561356b57600080fd5b505af192505050801561359c57506040513d601f19601f820116820180604052508101906135999190614061565b60015b61361f573d80600081146135cc576040519150601f19603f3d011682016040523d82523d6000602084013e6135d1565b606091505b50600081511415613617576040517f08c379a000000000000000000000000000000000000000000000000000000000815260040161360e906148ce565b60405180910390fd5b805181602001fd5b63150b7a0260e01b7bffffffffffffffffffffffffffffffffffffffffffffffffffffffff1916817bffffffffffffffffffffffffffffffffffffffffffffffffffffffff191614915050613674565b600190505b949350505050565b606060405180602001604052806000815250905090565b606061369e826127b2565b6136dd576040517f08c379a00000000000000000000000000000000000000000000000000000000081526004016136d490614aee565b60405180910390fd5b60006136e761367c565b905060008151116137075760405180602001604052806000815250613732565b8061371184613a59565b60405160200161372292919061474a565b6040516020818303038152906040525b915050919050565b505050565b600061374a82611243565b90506137588160008461327a565b613763600083612826565b6001600360008373ffffffffffffffffffffffffffffffffffffffff1673ffffffffffffffffffffffffffffffffffffffff16815260200190815260200160002060008282546137b39190614e3e565b925050819055506002600083815260200190815260200160002060006101000a81549073ffffffffffffffffffffffffffffffffffffffff021916905581600073ffffffffffffffffffffffffffffffffffffffff168273ffffffffffffffffffffffffffffffffffffffff167fddf252ad1be2c89b69c2b068fc378daa952ba7f163c4a11628f55a4df523b3ef60405160405180910390a46138588160008461327f565b5050565b600073ffffffffffffffffffffffffffffffffffffffff168273ffffffffffffffffffffffffffffffffffffffff1614156138cc576040517f08c379a00000000000000000000000000000000000000000000000000000000081526004016138c390614a2e565b60405180910390fd5b6138d5816127b2565b15613915576040517f08c379a000000000000000000000000000000000000000000000000000000000815260040161390c9061492e565b60405180910390fd5b6139216000838361327a565b6001600360008473ffffffffffffffffffffffffffffffffffffffff1673ffffffffffffffffffffffffffffffffffffffff16815260200190815260200160002060008282546139719190614d5d565b92505081905550816002600083815260200190815260200160002060006101000a81548173ffffffffffffffffffffffffffffffffffffffff021916908373ffffffffffffffffffffffffffffffffffffffff160217905550808273ffffffffffffffffffffffffffffffffffffffff16600073ffffffffffffffffffffffffffffffffffffffff167fddf252ad1be2c89b69c2b068fc378daa952ba7f163c4a11628f55a4df523b3ef60405160405180910390a4613a326000838361327f565b5050565b6000808273ffffffffffffffffffffffffffffffffffffffff163b119050919050565b60606000821415613aa1576040518060400160405280600181526020017f30000000000000000000000000000000000000000000000000000000000000008152509050613c01565b600082905060005b60008214613ad3578080613abc90614fda565b915050600a82613acc9190614db3565b9150613aa9565b60008167ffffffffffffffff811115613b15577f4e487b7100000000000000000000000000000000000000000000000000000000600052604160045260246000fd5b6040519080825280601f01601f191660200182016040528015613b475781602001600182028036833780820191505090505b5090505b60008514613bfa57600182613b609190614e3e565b9150600a85613b6f919061502d565b6030613b7b9190614d5d565b60f81b818381518110613bb7577f4e487b7100000000000000000000000000000000000000000000000000000000600052603260045260246000fd5b60200101907effffffffffffffffffffffffffffffffffffffffffffffffffffffffffffff1916908160001a905350600a85613bf39190614db3565b9450613b4b565b8093505050505b919050565b828054613c1290614f77565b90600052602060002090601f016020900481019282613c345760008555613c7b565b82601f10613c4d57805160ff1916838001178555613c7b565b82800160010185558215613c7b579182015b82811115613c7a578251825591602001919060010190613c5f565b5b509050613c889190613ccc565b5090565b508054613c9890614f77565b6000825580601f10613caa5750613cc9565b601f016020900490600052602060002090810190613cc89190613ccc565b5b50565b5b80821115613ce5576000816000905550600101613ccd565b5090565b6000613cfc613cf784614c25565b614c00565b90508083825260208201905082856020860282011115613d1b57600080fd5b60005b85811015613d4b5781613d318882613d93565b845260208401935060208301925050600181019050613d1e565b5050509392505050565b6000613d68613d6384614c51565b614c00565b905082815260208101848484011115613d8057600080fd5b613d8b848285614f0b565b509392505050565b600081359050613da28161577d565b92915050565b600082601f830112613db957600080fd5b8135613dc9848260208601613ce9565b91505092915050565b600081359050613de181615794565b92915050565b600081359050613df6816157ab565b92915050565b600081519050613e0b816157ab565b92915050565b600082601f830112613e2257600080fd5b8135613e32848260208601613d55565b91505092915050565b600081359050613e4a816157c2565b92915050565b600060208284031215613e6257600080fd5b6000613e7084828501613d93565b91505092915050565b60008060408385031215613e8c57600080fd5b6000613e9a85828601613d93565b9250506020613eab85828601613d93565b9150509250929050565b600080600060608486031215613eca57600080fd5b6000613ed886828701613d93565b9350506020613ee986828701613d93565b9250506040613efa86828701613e3b565b9150509250925092565b60008060008060808587031215613f1a57600080fd5b6000613f2887828801613d93565b9450506020613f3987828801613d93565b9350506040613f4a87828801613e3b565b925050606085013567ffffffffffffffff811115613f6757600080fd5b613f7387828801613e11565b91505092959194509250565b60008060408385031215613f9257600080fd5b6000613fa085828601613d93565b9250506020613fb185828601613dd2565b9150509250929050565b60008060408385031215613fce57600080fd5b6000613fdc85828601613d93565b9250506020613fed85828601613e3b565b9150509250929050565b60006020828403121561400957600080fd5b600082013567ffffffffffffffff81111561402357600080fd5b61402f84828501613da8565b91505092915050565b60006020828403121561404a57600080fd5b600061405884828501613de7565b91505092915050565b60006020828403121561407357600080fd5b600061408184828501613dfc565b91505092915050565b60006020828403121561409c57600080fd5b60006140aa84828501613e3b565b91505092915050565b60006140bf838361466e565b905092915050565b60006140d383836146fe565b60208301905092915050565b6140e881614e72565b82525050565b6140f781614e72565b82525050565b600061410882614cb7565b6141128185614cfd565b93508360208202850161412485614c82565b8060005b85811015614160578484038952815161414185826140b3565b945061414c83614ce3565b925060208a01995050600181019050614128565b50829750879550505050505092915050565b600061417d82614cc2565b6141878185614d0e565b935061419283614c92565b8060005b838110156141c35781516141aa88826140c7565b97506141b583614cf0565b925050600181019050614196565b5085935050505092915050565b6141d981614e84565b82525050565b60006141ea82614ccd565b6141f48185614d1f565b9350614204818560208601614f1a565b61420d81615149565b840191505092915050565b61422181614ef9565b82525050565b600061423282614cd8565b61423c8185614d30565b935061424c818560208601614f1a565b61425581615149565b840191505092915050565b600061426b82614cd8565b6142758185614d41565b9350614285818560208601614f1a565b61428e81615149565b840191505092915050565b60006142a482614cd8565b6142ae8185614d52565b93506142be818560208601614f1a565b80840191505092915050565b600081546142d781614f77565b6142e18186614d52565b945060018216600081146142fc576001811461430d57614340565b60ff19831686528186019350614340565b61431685614ca2565b60005b8381101561433857815481890152600182019150602081019050614319565b838801955050505b50505092915050565b6000614356603283614d41565b91506143618261515a565b604082019050919050565b6000614379602683614d41565b9150614384826151a9565b604082019050919050565b600061439c602583614d41565b91506143a7826151f8565b604082019050919050565b60006143bf601c83614d41565b91506143ca82615247565b602082019050919050565b60006143e2602483614d41565b91506143ed82615270565b604082019050919050565b6000614405601983614d41565b9150614410826152bf565b602082019050919050565b6000614428602c83614d41565b9150614433826152e8565b604082019050919050565b600061444b603883614d41565b915061445682615337565b604082019050919050565b600061446e602a83614d41565b915061447982615386565b604082019050919050565b6000614491602983614d41565b915061449c826153d5565b604082019050919050565b60006144b4602e83614d41565b91506144bf82615424565b604082019050919050565b60006144d7602083614d41565b91506144e282615473565b602082019050919050565b60006144fa603183614d41565b91506145058261549c565b604082019050919050565b600061451d600d83614d41565b9150614528826154eb565b602082019050919050565b6000614540602983614d41565b915061454b82615514565b604082019050919050565b6000614563602c83614d41565b915061456e82615563565b604082019050919050565b6000614586602083614d41565b9150614591826155b2565b602082019050919050565b60006145a9602f83614d41565b91506145b4826155db565b604082019050919050565b60006145cc602183614d41565b91506145d78261562a565b604082019050919050565b60006145ef600d83614d41565b91506145fa82615679565b602082019050919050565b6000614612603183614d41565b915061461d826156a2565b604082019050919050565b6000614635600a83614d41565b9150614640826156f1565b602082019050919050565b6000614658603083614d41565b91506146638261571a565b604082019050919050565b600060c08301600083015161468660008601826146fe565b50602083015161469960208601826140df565b5060408301516146ac60408601826146fe565b50606083015184820360608601526146c48282614227565b915050608083015184820360808601526146de8282614227565b91505060a08301516146f360a08601826146fe565b508091505092915050565b61470781614eef565b82525050565b61471681614eef565b82525050565b61472d61472882614eef565b615023565b82525050565b600061473f8284614299565b915081905092915050565b60006147568285614299565b91506147628284614299565b91508190509392505050565b600061477a82866142ca565b91506147868285614299565b915061479282846142ca565b9150819050949350505050565b60006147ab828561471c565b6020820191506147bb828461471c565b6020820191508190509392505050565b60006020820190506147e060008301846140ee565b92915050565b60006080820190506147fb60008301876140ee565b61480860208301866140ee565b614815604083018561470d565b818103606083015261482781846141df565b905095945050505050565b6000602082019050818103600083015261484c81846140fd565b905092915050565b6000602082019050818103600083015261486e8184614172565b905092915050565b600060208201905061488b60008301846141d0565b92915050565b60006020820190506148a66000830184614218565b92915050565b600060208201905081810360008301526148c68184614260565b905092915050565b600060208201905081810360008301526148e781614349565b9050919050565b600060208201905081810360008301526149078161436c565b9050919050565b600060208201905081810360008301526149278161438f565b9050919050565b60006020820190508181036000830152614947816143b2565b9050919050565b60006020820190508181036000830152614967816143d5565b9050919050565b60006020820190508181036000830152614987816143f8565b9050919050565b600060208201905081810360008301526149a78161441b565b9050919050565b600060208201905081810360008301526149c78161443e565b9050919050565b600060208201905081810360008301526149e781614461565b9050919050565b60006020820190508181036000830152614a0781614484565b9050919050565b60006020820190508181036000830152614a27816144a7565b9050919050565b60006020820190508181036000830152614a47816144ca565b9050919050565b60006020820190508181036000830152614a67816144ed565b9050919050565b60006020820190508181036000830152614a8781614510565b9050919050565b60006020820190508181036000830152614aa781614533565b9050919050565b60006020820190508181036000830152614ac781614556565b9050919050565b60006020820190508181036000830152614ae781614579565b9050919050565b60006020820190508181036000830152614b078161459c565b9050919050565b60006020820190508181036000830152614b27816145bf565b9050919050565b60006020820190508181036000830152614b47816145e2565b9050919050565b60006020820190508181036000830152614b6781614605565b9050919050565b60006020820190508181036000830152614b8781614628565b9050919050565b60006020820190508181036000830152614ba78161464b565b9050919050565b6000602082019050614bc3600083018461470d565b92915050565b6000606082019050614bde600083018661470d565b614beb602083018561470d565b614bf8604083018461470d565b949350505050565b6000614c0a614c1b565b9050614c168282614fa9565b919050565b6000604051905090565b600067ffffffffffffffff821115614c4057614c3f61511a565b5b602082029050602081019050919050565b600067ffffffffffffffff821115614c6c57614c6b61511a565b5b614c7582615149565b9050602081019050919050565b6000819050602082019050919050565b6000819050602082019050919050565b60008190508160005260206000209050919050565b600081519050919050565b600081519050919050565b600081519050919050565b600081519050919050565b6000602082019050919050565b6000602082019050919050565b600082825260208201905092915050565b600082825260208201905092915050565b600082825260208201905092915050565b600082825260208201905092915050565b600082825260208201905092915050565b600081905092915050565b6000614d6882614eef565b9150614d7383614eef565b9250827fffffffffffffffffffffffffffffffffffffffffffffffffffffffffffffffff03821115614da857614da761505e565b5b828201905092915050565b6000614dbe82614eef565b9150614dc983614eef565b925082614dd957614dd861508d565b5b828204905092915050565b6000614def82614eef565b9150614dfa83614eef565b9250817fffffffffffffffffffffffffffffffffffffffffffffffffffffffffffffffff0483118215151615614e3357614e3261505e565b5b828202905092915050565b6000614e4982614eef565b9150614e5483614eef565b925082821015614e6757614e6661505e565b5b828203905092915050565b6000614e7d82614ecf565b9050919050565b60008115159050919050565b60007fffffffff0000000000000000000000000000000000000000000000000000000082169050919050565b6000819050614eca82615769565b919050565b600073ffffffffffffffffffffffffffffffffffffffff82169050919050565b6000819050919050565b6000614f0482614ebc565b9050919050565b82818337600083830152505050565b60005b83811015614f38578082015181840152602081019050614f1d565b83811115614f47576000848401525b50505050565b6000614f5882614eef565b91506000821415614f6c57614f6b61505e565b5b600182039050919050565b60006002820490506001821680614f8f57607f821691505b60208210811415614fa357614fa26150eb565b5b50919050565b614fb282615149565b810181811067ffffffffffffffff82111715614fd157614fd061511a565b5b80604052505050565b6000614fe582614eef565b91507fffffffffffffffffffffffffffffffffffffffffffffffffffffffffffffffff8214156150185761501761505e565b5b600182019050919050565b6000819050919050565b600061503882614eef565b915061504383614eef565b9250826150535761505261508d565b5b828206905092915050565b7f4e487b7100000000000000000000000000000000000000000000000000000000600052601160045260246000fd5b7f4e487b7100000000000000000000000000000000000000000000000000000000600052601260045260246000fd5b7f4e487b7100000000000000000000000000000000000000000000000000000000600052602160045260246000fd5b7f4e487b7100000000000000000000000000000000000000000000000000000000600052602260045260246000fd5b7f4e487b7100000000000000000000000000000000000000000000000000000000600052604160045260246000fd5b6000601f19601f8301169050919050565b7f4552433732313a207472616e7366657220746f206e6f6e20455243373231526560008201527f63656976657220696d706c656d656e7465720000000000000000000000000000602082015250565b7f4f776e61626c653a206e6577206f776e657220697320746865207a65726f206160008201527f6464726573730000000000000000000000000000000000000000000000000000602082015250565b7f4552433732313a207472616e736665722066726f6d20696e636f72726563742060008201527f6f776e6572000000000000000000000000000000000000000000000000000000602082015250565b7f4552433732313a20746f6b656e20616c7265616479206d696e74656400000000600082015250565b7f4552433732313a207472616e7366657220746f20746865207a65726f2061646460008201527f7265737300000000000000000000000000000000000000000000000000000000602082015250565b7f4552433732313a20617070726f766520746f2063616c6c657200000000000000600082015250565b7f4552433732313a206f70657261746f7220717565727920666f72206e6f6e657860008201527f697374656e7420746f6b656e0000000000000000000000000000000000000000602082015250565b7f4552433732313a20617070726f76652063616c6c6572206973206e6f74206f7760008201527f6e6572206e6f7220617070726f76656420666f7220616c6c0000000000000000602082015250565b7f4552433732313a2062616c616e636520717565727920666f7220746865207a6560008201527f726f206164647265737300000000000000000000000000000000000000000000602082015250565b7f4552433732313a206f776e657220717565727920666f72206e6f6e657869737460008201527f656e7420746f6b656e0000000000000000000000000000000000000000000000602082015250565b7f45524337323155524953746f726167653a2055524920736574206f66206e6f6e60008201527f6578697374656e7420746f6b656e000000000000000000000000000000000000602082015250565b7f4552433732313a206d696e7420746f20746865207a65726f2061646472657373600082015250565b7f45524337323155524953746f726167653a2055524920717565727920666f722060008201527f6e6f6e6578697374656e7420746f6b656e000000000000000000000000000000602082015250565b7f53656e64206d6f72652065746800000000000000000000000000000000000000600082015250565b7f4e6f7420656e6f75676820746f6b656e7320617661696c61626c6520696e207460008201527f6869732070686173650000000000000000000000000000000000000000000000602082015250565b7f4552433732313a20617070726f76656420717565727920666f72206e6f6e657860008201527f697374656e7420746f6b656e0000000000000000000000000000000000000000602082015250565b7f4f776e61626c653a2063616c6c6572206973206e6f7420746865206f776e6572600082015250565b7f4552433732314d657461646174613a2055524920717565727920666f72206e6f60008201527f6e6578697374656e7420746f6b656e0000000000000000000000000000000000602082015250565b7f4552433732313a20617070726f76616c20746f2063757272656e74206f776e6560008201527f7200000000000000000000000000000000000000000000000000000000000000602082015250565b7f4d696e74206e6f74206f70656e00000000000000000000000000000000000000600082015250565b7f4552433732313a207472616e736665722063616c6c6572206973206e6f74206f60008201527f776e6572206e6f7220617070726f766564000000000000000000000000000000602082015250565b7f4d696e746564206f757400000000000000000000000000000000000000000000600082015250565b7f4552433732314275726e61626c653a2063616c6c6572206973206e6f74206f7760008201527f6e6572206e6f7220617070726f76656400000000000000000000000000000000602082015250565b6006811061577a576157796150bc565b5b50565b61578681614e72565b811461579157600080fd5b50565b61579d81614e84565b81146157a857600080fd5b50565b6157b481614e90565b81146157bf57600080fd5b50565b6157cb81614eef565b81146157d657600080fd5b5056fea26469706673582212201b037c1b99ad309e9aa809bc677ef616e62b9ba078b6cc959b383b6a928a60ed64736f6c6343000804003368747470733a2f2f697066732e696f2f697066732f516d55726e53524a4474396655547544756639665776744b706e6e32765261707438446f5463743961354b664b382f68747470733a2f2f697066732e696f2f697066732f516d504a68576962746d52597a6d535a75316b7874693763557148315464586d4b42354d474e6f527637733575722f",
  "linkReferences": {},
  "deployedLinkReferences": {}
}