{
  "address": "0xf353B86B805AEE2BF9122d029302Db00F9474e55",
  "abi": [
    {
      "inputs": [
        {
          "internalType": "address",
          "name": "_layerZeroEndpoint",
          "type": "address"
        },
        {
          "internalType": "uint256",
          "name": "_startMintId",
          "type": "uint256"
        },
        {
          "internalType": "uint256",
          "name": "_endMintId",
          "type": "uint256"
        },
        {
          "internalType": "uint256",
          "name": "_cost",
          "type": "uint256"
        }
      ],
      "stateMutability": "nonpayable",
      "type": "constructor"
    },
    {
      "anonymous": false,
      "inputs": [
        {
          "indexed": true,
          "internalType": "address",
          "name": "owner",
          "type": "address"
        },
        {
          "indexed": true,
          "internalType": "address",
          "name": "approved",
          "type": "address"
        },
        {
          "indexed": true,
          "internalType": "uint256",
          "name": "tokenId",
          "type": "uint256"
        }
      ],
      "name": "Approval",
      "type": "event"
    },
    {
      "anonymous": false,
      "inputs": [
        {
          "indexed": true,
          "internalType": "address",
          "name": "owner",
          "type": "address"
        },
        {
          "indexed": true,
          "internalType": "address",
          "name": "operator",
          "type": "address"
        },
        {
          "indexed": false,
          "internalType": "bool",
          "name": "approved",
          "type": "bool"
        }
      ],
      "name": "ApprovalForAll",
      "type": "event"
    },
    {
      "anonymous": false,
      "inputs": [
        {
          "indexed": false,
          "internalType": "bytes32",
          "name": "_hashedPayload",
          "type": "bytes32"
        }
      ],
      "name": "CreditCleared",
      "type": "event"
    },
    {
      "anonymous": false,
      "inputs": [
        {
          "indexed": false,
          "internalType": "bytes32",
          "name": "_hashedPayload",
          "type": "bytes32"
        },
        {
          "indexed": false,
          "internalType": "bytes",
          "name": "_payload",
          "type": "bytes"
        }
      ],
      "name": "CreditStored",
      "type": "event"
    },
    {
      "anonymous": false,
      "inputs": [
        {
          "indexed": false,
          "internalType": "uint16",
          "name": "_srcChainId",
          "type": "uint16"
        },
        {
          "indexed": false,
          "internalType": "bytes",
          "name": "_srcAddress",
          "type": "bytes"
        },
        {
          "indexed": false,
          "internalType": "uint64",
          "name": "_nonce",
          "type": "uint64"
        },
        {
          "indexed": false,
          "internalType": "bytes",
          "name": "_payload",
          "type": "bytes"
        },
        {
          "indexed": false,
          "internalType": "bytes",
          "name": "_reason",
          "type": "bytes"
        }
      ],
      "name": "MessageFailed",
      "type": "event"
    },
    {
      "anonymous": false,
      "inputs": [
        {
          "indexed": true,
          "internalType": "address",
          "name": "previousOwner",
          "type": "address"
        },
        {
          "indexed": true,
          "internalType": "address",
          "name": "newOwner",
          "type": "address"
        }
      ],
      "name": "OwnershipTransferred",
      "type": "event"
    },
    {
      "anonymous": false,
      "inputs": [
        {
          "indexed": true,
          "internalType": "uint16",
          "name": "_srcChainId",
          "type": "uint16"
        },
        {
          "indexed": true,
          "internalType": "bytes",
          "name": "_srcAddress",
          "type": "bytes"
        },
        {
          "indexed": true,
          "internalType": "address",
          "name": "_toAddress",
          "type": "address"
        },
        {
          "indexed": false,
          "internalType": "uint256[]",
          "name": "_tokenIds",
          "type": "uint256[]"
        }
      ],
      "name": "ReceiveFromChain",
      "type": "event"
    },
    {
      "anonymous": false,
      "inputs": [
        {
          "indexed": false,
          "internalType": "uint16",
          "name": "_srcChainId",
          "type": "uint16"
        },
        {
          "indexed": false,
          "internalType": "bytes",
          "name": "_srcAddress",
          "type": "bytes"
        },
        {
          "indexed": false,
          "internalType": "uint64",
          "name": "_nonce",
          "type": "uint64"
        },
        {
          "indexed": false,
          "internalType": "bytes32",
          "name": "_payloadHash",
          "type": "bytes32"
        }
      ],
      "name": "RetryMessageSuccess",
      "type": "event"
    },
    {
      "anonymous": false,
      "inputs": [
        {
          "indexed": false,
          "internalType": "uint256",
          "name": "id",
          "type": "uint256"
        },
        {
          "indexed": true,
          "internalType": "address",
          "name": "buyer",
          "type": "address"
        },
        {
          "indexed": false,
          "internalType": "uint256",
          "name": "cost",
          "type": "uint256"
        },
        {
          "indexed": true,
          "internalType": "string",
          "name": "tokenURIJSON",
          "type": "string"
        },
        {
          "indexed": true,
          "internalType": "string",
          "name": "tokenURIPNG",
          "type": "string"
        },
        {
          "indexed": false,
          "internalType": "uint256",
          "name": "timestamp",
          "type": "uint256"
        }
      ],
      "name": "Sale",
      "type": "event"
    },
    {
      "anonymous": false,
      "inputs": [
        {
          "indexed": true,
          "internalType": "uint16",
          "name": "_dstChainId",
          "type": "uint16"
        },
        {
          "indexed": true,
          "internalType": "address",
          "name": "_from",
          "type": "address"
        },
        {
          "indexed": true,
          "internalType": "bytes",
          "name": "_toAddress",
          "type": "bytes"
        },
        {
          "indexed": false,
          "internalType": "uint256[]",
          "name": "_tokenIds",
          "type": "uint256[]"
        }
      ],
      "name": "SendToChain",
      "type": "event"
    },
    {
      "anonymous": false,
      "inputs": [
        {
          "indexed": false,
          "internalType": "uint16",
          "name": "_dstChainId",
          "type": "uint16"
        },
        {
          "indexed": false,
          "internalType": "uint256",
          "name": "_dstChainIdToBatchLimit",
          "type": "uint256"
        }
      ],
      "name": "SetDstChainIdToBatchLimit",
      "type": "event"
    },
    {
      "anonymous": false,
      "inputs": [
        {
          "indexed": false,
          "internalType": "uint16",
          "name": "_dstChainId",
          "type": "uint16"
        },
        {
          "indexed": false,
          "internalType": "uint256",
          "name": "_dstChainIdToTransferGas",
          "type": "uint256"
        }
      ],
      "name": "SetDstChainIdToTransferGas",
      "type": "event"
    },
    {
      "anonymous": false,
      "inputs": [
        {
          "indexed": false,
          "internalType": "uint16",
          "name": "_dstChainId",
          "type": "uint16"
        },
        {
          "indexed": false,
          "internalType": "uint16",
          "name": "_type",
          "type": "uint16"
        },
        {
          "indexed": false,
          "internalType": "uint256",
          "name": "_minDstGas",
          "type": "uint256"
        }
      ],
      "name": "SetMinDstGas",
      "type": "event"
    },
    {
      "anonymous": false,
      "inputs": [
        {
          "indexed": false,
          "internalType": "uint256",
          "name": "_minGasToTransferAndStore",
          "type": "uint256"
        }
      ],
      "name": "SetMinGasToTransferAndStore",
      "type": "event"
    },
    {
      "anonymous": false,
      "inputs": [
        {
          "indexed": false,
          "internalType": "address",
          "name": "precrime",
          "type": "address"
        }
      ],
      "name": "SetPrecrime",
      "type": "event"
    },
    {
      "anonymous": false,
      "inputs": [
        {
          "indexed": false,
          "internalType": "uint16",
          "name": "_remoteChainId",
          "type": "uint16"
        },
        {
          "indexed": false,
          "internalType": "bytes",
          "name": "_path",
          "type": "bytes"
        }
      ],
      "name": "SetTrustedRemote",
      "type": "event"
    },
    {
      "anonymous": false,
      "inputs": [
        {
          "indexed": false,
          "internalType": "uint16",
          "name": "_remoteChainId",
          "type": "uint16"
        },
        {
          "indexed": false,
          "internalType": "bytes",
          "name": "_remoteAddress",
          "type": "bytes"
        }
      ],
      "name": "SetTrustedRemoteAddress",
      "type": "event"
    },
    {
      "anonymous": false,
      "inputs": [
        {
          "indexed": true,
          "internalType": "address",
          "name": "from",
          "type": "address"
        },
        {
          "indexed": true,
          "internalType": "address",
          "name": "to",
          "type": "address"
        },
        {
          "indexed": true,
          "internalType": "uint256",
          "name": "tokenId",
          "type": "uint256"
        }
      ],
      "name": "Transfer",
      "type": "event"
    },
    {
      "inputs": [],
      "name": "DEFAULT_PAYLOAD_SIZE_LIMIT",
      "outputs": [
        {
          "internalType": "uint256",
          "name": "",
          "type": "uint256"
        }
      ],
      "stateMutability": "view",
      "type": "function"
    },
    {
      "inputs": [],
      "name": "FUNCTION_TYPE_SEND",
      "outputs": [
        {
          "internalType": "uint16",
          "name": "",
          "type": "uint16"
        }
      ],
      "stateMutability": "view",
      "type": "function"
    },
    {
      "inputs": [],
      "name": "_minGasToStore",
      "outputs": [
        {
          "internalType": "uint256",
          "name": "",
          "type": "uint256"
        }
      ],
      "stateMutability": "view",
      "type": "function"
    },
    {
      "inputs": [
        {
          "internalType": "address[]",
          "name": "_beneficiaries",
          "type": "address[]"
        }
      ],
      "name": "addManyToWhitelist",
      "outputs": [],
      "stateMutability": "nonpayable",
      "type": "function"
    },
    {
      "inputs": [
        {
          "internalType": "address",
          "name": "_beneficiary",
          "type": "address"
        }
      ],
      "name": "addToWhitelist",
      "outputs": [],
      "stateMutability": "nonpayable",
      "type": "function"
    },
    {
      "inputs": [
        {
          "internalType": "address",
          "name": "to",
          "type": "address"
        },
        {
          "internalType": "uint256",
          "name": "tokenId",
          "type": "uint256"
        }
      ],
      "name": "approve",
      "outputs": [],
      "stateMutability": "nonpayable",
      "type": "function"
    },
    {
      "inputs": [
        {
          "internalType": "address",
          "name": "owner",
          "type": "address"
        }
      ],
      "name": "balanceOf",
      "outputs": [
        {
          "internalType": "uint256",
          "name": "",
          "type": "uint256"
        }
      ],
      "stateMutability": "view",
      "type": "function"
    },
    {
      "inputs": [
        {
          "internalType": "uint256",
          "name": "tokenId",
          "type": "uint256"
        }
      ],
      "name": "burn",
      "outputs": [],
      "stateMutability": "nonpayable",
      "type": "function"
    },
    {
      "inputs": [
        {
          "internalType": "bytes",
          "name": "_payload",
          "type": "bytes"
        }
      ],
      "name": "clearCredits",
      "outputs": [],
      "stateMutability": "nonpayable",
      "type": "function"
    },
    {
      "inputs": [
        {
          "internalType": "uint16",
          "name": "",
          "type": "uint16"
        }
      ],
      "name": "dstChainIdToBatchLimit",
      "outputs": [
        {
          "internalType": "uint256",
          "name": "",
          "type": "uint256"
        }
      ],
      "stateMutability": "view",
      "type": "function"
    },
    {
      "inputs": [
        {
          "internalType": "uint16",
          "name": "",
          "type": "uint16"
        }
      ],
      "name": "dstChainIdToTransferGas",
      "outputs": [
        {
          "internalType": "uint256",
          "name": "",
          "type": "uint256"
        }
      ],
      "stateMutability": "view",
      "type": "function"
    },
    {
      "inputs": [
        {
          "internalType": "uint16",
          "name": "_dstChainId",
          "type": "uint16"
        },
        {
          "internalType": "bytes",
          "name": "_toAddress",
          "type": "bytes"
        },
        {
          "internalType": "uint256[]",
          "name": "_tokenIds",
          "type": "uint256[]"
        },
        {
          "internalType": "bool",
          "name": "_useZro",
          "type": "bool"
        },
        {
          "internalType": "bytes",
          "name": "_adapterParams",
          "type": "bytes"
        }
      ],
      "name": "estimateSendBatchFee",
      "outputs": [
        {
          "internalType": "uint256",
          "name": "nativeFee",
          "type": "uint256"
        },
        {
          "internalType": "uint256",
          "name": "zroFee",
          "type": "uint256"
        }
      ],
      "stateMutability": "view",
      "type": "function"
    },
    {
      "inputs": [
        {
          "internalType": "uint16",
          "name": "_dstChainId",
          "type": "uint16"
        },
        {
          "internalType": "bytes",
          "name": "_toAddress",
          "type": "bytes"
        },
        {
          "internalType": "uint256",
          "name": "_tokenId",
          "type": "uint256"
        },
        {
          "internalType": "bool",
          "name": "_useZro",
          "type": "bool"
        },
        {
          "internalType": "bytes",
          "name": "_adapterParams",
          "type": "bytes"
        }
      ],
      "name": "estimateSendFee",
      "outputs": [
        {
          "internalType": "uint256",
          "name": "nativeFee",
          "type": "uint256"
        },
        {
          "internalType": "uint256",
          "name": "zroFee",
          "type": "uint256"
        }
      ],
      "stateMutability": "view",
      "type": "function"
    },
    {
      "inputs": [
        {
          "internalType": "uint16",
          "name": "",
          "type": "uint16"
        },
        {
          "internalType": "bytes",
          "name": "",
          "type": "bytes"
        },
        {
          "internalType": "uint64",
          "name": "",
          "type": "uint64"
        }
      ],
      "name": "failedMessages",
      "outputs": [
        {
          "internalType": "bytes32",
          "name": "",
          "type": "bytes32"
        }
      ],
      "stateMutability": "view",
      "type": "function"
    },
    {
      "inputs": [
        {
          "internalType": "uint16",
          "name": "_srcChainId",
          "type": "uint16"
        },
        {
          "internalType": "bytes",
          "name": "_srcAddress",
          "type": "bytes"
        }
      ],
      "name": "forceResumeReceive",
      "outputs": [],
      "stateMutability": "nonpayable",
      "type": "function"
    },
    {
      "inputs": [
        {
          "internalType": "uint256",
          "name": "tokenId",
          "type": "uint256"
        }
      ],
      "name": "getApproved",
      "outputs": [
        {
          "internalType": "address",
          "name": "",
          "type": "address"
        }
      ],
      "stateMutability": "view",
      "type": "function"
    },
    {
      "inputs": [
        {
          "internalType": "uint16",
          "name": "_version",
          "type": "uint16"
        },
        {
          "internalType": "uint16",
          "name": "_chainId",
          "type": "uint16"
        },
        {
          "internalType": "address",
          "name": "",
          "type": "address"
        },
        {
          "internalType": "uint256",
          "name": "_configType",
          "type": "uint256"
        }
      ],
      "name": "getConfig",
      "outputs": [
        {
          "internalType": "bytes",
          "name": "",
          "type": "bytes"
        }
      ],
      "stateMutability": "view",
      "type": "function"
    },
    {
      "inputs": [],
      "name": "getMintRate",
      "outputs": [
        {
          "internalType": "uint256",
          "name": "",
          "type": "uint256"
        }
      ],
      "stateMutability": "view",
      "type": "function"
    },
    {
      "inputs": [],
      "name": "getMintedTknsAmt",
      "outputs": [
        {
          "internalType": "uint256",
          "name": "",
          "type": "uint256"
        }
      ],
      "stateMutability": "view",
      "type": "function"
    },
    {
      "inputs": [
        {
          "internalType": "address",
          "name": "_owner",
          "type": "address"
        }
      ],
      "name": "getTokenIdsOfOwner",
      "outputs": [
        {
          "internalType": "uint256[]",
          "name": "",
          "type": "uint256[]"
        }
      ],
      "stateMutability": "view",
      "type": "function"
    },
    {
      "inputs": [
        {
          "internalType": "uint16",
          "name": "_remoteChainId",
          "type": "uint16"
        }
      ],
      "name": "getTrustedRemoteAddress",
      "outputs": [
        {
          "internalType": "bytes",
          "name": "",
          "type": "bytes"
        }
      ],
      "stateMutability": "view",
      "type": "function"
    },
    {
      "inputs": [
        {
          "internalType": "uint256",
          "name": "tokenid",
          "type": "uint256"
        }
      ],
      "name": "getURIJSON",
      "outputs": [
        {
          "internalType": "string",
          "name": "",
          "type": "string"
        }
      ],
      "stateMutability": "view",
      "type": "function"
    },
    {
      "inputs": [
        {
          "internalType": "uint256",
          "name": "tokenid",
          "type": "uint256"
        }
      ],
      "name": "getURIPNG",
      "outputs": [
        {
          "internalType": "string",
          "name": "",
          "type": "string"
        }
      ],
      "stateMutability": "view",
      "type": "function"
    },
    {
      "inputs": [
        {
          "internalType": "address",
          "name": "winner",
          "type": "address"
        },
        {
          "internalType": "uint256",
          "name": "_tokenIdToGiveaway",
          "type": "uint256"
        }
      ],
      "name": "giveAway",
      "outputs": [],
      "stateMutability": "nonpayable",
      "type": "function"
    },
    {
      "inputs": [
        {
          "internalType": "address",
          "name": "owner",
          "type": "address"
        },
        {
          "internalType": "address",
          "name": "operator",
          "type": "address"
        }
      ],
      "name": "isApprovedForAll",
      "outputs": [
        {
          "internalType": "bool",
          "name": "",
          "type": "bool"
        }
      ],
      "stateMutability": "view",
      "type": "function"
    },
    {
      "inputs": [
        {
          "internalType": "uint16",
          "name": "_srcChainId",
          "type": "uint16"
        },
        {
          "internalType": "bytes",
          "name": "_srcAddress",
          "type": "bytes"
        }
      ],
      "name": "isTrustedRemote",
      "outputs": [
        {
          "internalType": "bool",
          "name": "",
          "type": "bool"
        }
      ],
      "stateMutability": "view",
      "type": "function"
    },
    {
      "inputs": [],
      "name": "jsonEndpoint",
      "outputs": [
        {
          "internalType": "string",
          "name": "",
          "type": "string"
        }
      ],
      "stateMutability": "view",
      "type": "function"
    },
    {
      "inputs": [],
      "name": "jsonExtension",
      "outputs": [
        {
          "internalType": "string",
          "name": "",
          "type": "string"
        }
      ],
      "stateMutability": "view",
      "type": "function"
    },
    {
      "inputs": [],
      "name": "lzEndpoint",
      "outputs": [
        {
          "internalType": "contract ILayerZeroEndpoint",
          "name": "",
          "type": "address"
        }
      ],
      "stateMutability": "view",
      "type": "function"
    },
    {
      "inputs": [
        {
          "internalType": "uint16",
          "name": "_srcChainId",
          "type": "uint16"
        },
        {
          "internalType": "bytes",
          "name": "_srcAddress",
          "type": "bytes"
        },
        {
          "internalType": "uint64",
          "name": "_nonce",
          "type": "uint64"
        },
        {
          "internalType": "bytes",
          "name": "_payload",
          "type": "bytes"
        }
      ],
      "name": "lzReceive",
      "outputs": [],
      "stateMutability": "nonpayable",
      "type": "function"
    },
    {
      "inputs": [],
      "name": "maxMintId",
      "outputs": [
        {
          "internalType": "uint256",
          "name": "",
          "type": "uint256"
        }
      ],
      "stateMutability": "view",
      "type": "function"
    },
    {
      "inputs": [
        {
          "internalType": "uint16",
          "name": "",
          "type": "uint16"
        },
        {
          "internalType": "uint16",
          "name": "",
          "type": "uint16"
        }
      ],
      "name": "minDstGasLookup",
      "outputs": [
        {
          "internalType": "uint256",
          "name": "",
          "type": "uint256"
        }
      ],
      "stateMutability": "view",
      "type": "function"
    },
    {
      "inputs": [],
      "name": "minGasToTransferAndStore",
      "outputs": [
        {
          "internalType": "uint256",
          "name": "",
          "type": "uint256"
        }
      ],
      "stateMutability": "view",
      "type": "function"
    },
    {
      "inputs": [],
      "name": "mintRate",
      "outputs": [
        {
          "internalType": "uint256",
          "name": "",
          "type": "uint256"
        }
      ],
      "stateMutability": "view",
      "type": "function"
    },
    {
      "inputs": [],
      "name": "name",
      "outputs": [
        {
          "internalType": "string",
          "name": "",
          "type": "string"
        }
      ],
      "stateMutability": "view",
      "type": "function"
    },
    {
      "inputs": [],
      "name": "nextMintId",
      "outputs": [
        {
          "internalType": "uint256",
          "name": "",
          "type": "uint256"
        }
      ],
      "stateMutability": "view",
      "type": "function"
    },
    {
      "inputs": [
        {
          "internalType": "uint16",
          "name": "_srcChainId",
          "type": "uint16"
        },
        {
          "internalType": "bytes",
          "name": "_srcAddress",
          "type": "bytes"
        },
        {
          "internalType": "uint64",
          "name": "_nonce",
          "type": "uint64"
        },
        {
          "internalType": "bytes",
          "name": "_payload",
          "type": "bytes"
        }
      ],
      "name": "nonblockingLzReceive",
      "outputs": [],
      "stateMutability": "nonpayable",
      "type": "function"
    },
    {
      "inputs": [],
      "name": "openingTime",
      "outputs": [
        {
          "internalType": "uint256",
          "name": "",
          "type": "uint256"
        }
      ],
      "stateMutability": "view",
      "type": "function"
    },
    {
      "inputs": [],
      "name": "owner",
      "outputs": [
        {
          "internalType": "address",
          "name": "",
          "type": "address"
        }
      ],
      "stateMutability": "view",
      "type": "function"
    },
    {
      "inputs": [
        {
          "internalType": "uint256",
          "name": "tokenId",
          "type": "uint256"
        }
      ],
      "name": "ownerOf",
      "outputs": [
        {
          "internalType": "address",
          "name": "",
          "type": "address"
        }
      ],
      "stateMutability": "view",
      "type": "function"
    },
    {
      "inputs": [
        {
          "internalType": "uint16",
          "name": "",
          "type": "uint16"
        }
      ],
      "name": "payloadSizeLimitLookup",
      "outputs": [
        {
          "internalType": "uint256",
          "name": "",
          "type": "uint256"
        }
      ],
      "stateMutability": "view",
      "type": "function"
    },
    {
      "inputs": [],
      "name": "pngEndpoint",
      "outputs": [
        {
          "internalType": "string",
          "name": "",
          "type": "string"
        }
      ],
      "stateMutability": "view",
      "type": "function"
    },
    {
      "inputs": [],
      "name": "pngExtension",
      "outputs": [
        {
          "internalType": "string",
          "name": "",
          "type": "string"
        }
      ],
      "stateMutability": "view",
      "type": "function"
    },
    {
      "inputs": [],
      "name": "precrime",
      "outputs": [
        {
          "internalType": "address",
          "name": "",
          "type": "address"
        }
      ],
      "stateMutability": "view",
      "type": "function"
    },
    {
      "inputs": [],
      "name": "renounceOwnership",
      "outputs": [],
      "stateMutability": "nonpayable",
      "type": "function"
    },
    {
      "inputs": [
        {
          "internalType": "uint16",
          "name": "_srcChainId",
          "type": "uint16"
        },
        {
          "internalType": "bytes",
          "name": "_srcAddress",
          "type": "bytes"
        },
        {
          "internalType": "uint64",
          "name": "_nonce",
          "type": "uint64"
        },
        {
          "internalType": "bytes",
          "name": "_payload",
          "type": "bytes"
        }
      ],
      "name": "retryMessage",
      "outputs": [],
      "stateMutability": "payable",
      "type": "function"
    },
    {
      "inputs": [
        {
          "internalType": "address",
          "name": "to",
          "type": "address"
        },
        {
          "internalType": "uint256",
          "name": "_amtOfTokensToMint",
          "type": "uint256"
        }
      ],
      "name": "safeMint",
      "outputs": [],
      "stateMutability": "payable",
      "type": "function"
    },
    {
      "inputs": [
        {
          "internalType": "address",
          "name": "from",
          "type": "address"
        },
        {
          "internalType": "address",
          "name": "to",
          "type": "address"
        },
        {
          "internalType": "uint256",
          "name": "tokenId",
          "type": "uint256"
        }
      ],
      "name": "safeTransferFrom",
      "outputs": [],
      "stateMutability": "nonpayable",
      "type": "function"
    },
    {
      "inputs": [
        {
          "internalType": "address",
          "name": "from",
          "type": "address"
        },
        {
          "internalType": "address",
          "name": "to",
          "type": "address"
        },
        {
          "internalType": "uint256",
          "name": "tokenId",
          "type": "uint256"
        },
        {
          "internalType": "bytes",
          "name": "_data",
          "type": "bytes"
        }
      ],
      "name": "safeTransferFrom",
      "outputs": [],
      "stateMutability": "nonpayable",
      "type": "function"
    },
    {
      "inputs": [
        {
          "internalType": "address",
          "name": "_from",
          "type": "address"
        },
        {
          "internalType": "uint16",
          "name": "_dstChainId",
          "type": "uint16"
        },
        {
          "internalType": "bytes",
          "name": "_toAddress",
          "type": "bytes"
        },
        {
          "internalType": "uint256[]",
          "name": "_tokenIds",
          "type": "uint256[]"
        },
        {
          "internalType": "address payable",
          "name": "_refundAddress",
          "type": "address"
        },
        {
          "internalType": "address",
          "name": "_zroPaymentAddress",
          "type": "address"
        },
        {
          "internalType": "bytes",
          "name": "_adapterParams",
          "type": "bytes"
        }
      ],
      "name": "sendBatchFrom",
      "outputs": [],
      "stateMutability": "payable",
      "type": "function"
    },
    {
      "inputs": [
        {
          "internalType": "address",
          "name": "_from",
          "type": "address"
        },
        {
          "internalType": "uint16",
          "name": "_dstChainId",
          "type": "uint16"
        },
        {
          "internalType": "bytes",
          "name": "_toAddress",
          "type": "bytes"
        },
        {
          "internalType": "uint256",
          "name": "_tokenId",
          "type": "uint256"
        },
        {
          "internalType": "address payable",
          "name": "_refundAddress",
          "type": "address"
        },
        {
          "internalType": "address",
          "name": "_zroPaymentAddress",
          "type": "address"
        },
        {
          "internalType": "bytes",
          "name": "_adapterParams",
          "type": "bytes"
        }
      ],
      "name": "sendFrom",
      "outputs": [],
      "stateMutability": "payable",
      "type": "function"
    },
    {
      "inputs": [
        {
          "internalType": "address",
          "name": "operator",
          "type": "address"
        },
        {
          "internalType": "bool",
          "name": "approved",
          "type": "bool"
        }
      ],
      "name": "setApprovalForAll",
      "outputs": [],
      "stateMutability": "nonpayable",
      "type": "function"
    },
    {
      "inputs": [
        {
          "internalType": "uint16",
          "name": "_version",
          "type": "uint16"
        },
        {
          "internalType": "uint16",
          "name": "_chainId",
          "type": "uint16"
        },
        {
          "internalType": "uint256",
          "name": "_configType",
          "type": "uint256"
        },
        {
          "internalType": "bytes",
          "name": "_config",
          "type": "bytes"
        }
      ],
      "name": "setConfig",
      "outputs": [],
      "stateMutability": "nonpayable",
      "type": "function"
    },
    {
      "inputs": [
        {
          "internalType": "uint16",
          "name": "_dstChainId",
          "type": "uint16"
        },
        {
          "internalType": "uint256",
          "name": "_dstChainIdToBatchLimit",
          "type": "uint256"
        }
      ],
      "name": "setDstChainIdToBatchLimit",
      "outputs": [],
      "stateMutability": "nonpayable",
      "type": "function"
    },
    {
      "inputs": [
        {
          "internalType": "uint16",
          "name": "_dstChainId",
          "type": "uint16"
        },
        {
          "internalType": "uint256",
          "name": "_dstChainIdToTransferGas",
          "type": "uint256"
        }
      ],
      "name": "setDstChainIdToTransferGas",
      "outputs": [],
      "stateMutability": "nonpayable",
      "type": "function"
    },
    {
      "inputs": [
        {
          "internalType": "uint16",
          "name": "_dstChainId",
          "type": "uint16"
        },
        {
          "internalType": "uint16",
          "name": "_packetType",
          "type": "uint16"
        },
        {
          "internalType": "uint256",
          "name": "_minGas",
          "type": "uint256"
        }
      ],
      "name": "setMinDstGas",
      "outputs": [],
      "stateMutability": "nonpayable",
      "type": "function"
    },
    {
      "inputs": [
        {
          "internalType": "uint256",
          "name": "_minGasToTransferAndStore",
          "type": "uint256"
        }
      ],
      "name": "setMinGasToTransferAndStore",
      "outputs": [],
      "stateMutability": "nonpayable",
      "type": "function"
    },
    {
      "inputs": [
        {
          "internalType": "uint16",
          "name": "_dstChainId",
          "type": "uint16"
        },
        {
          "internalType": "uint256",
          "name": "_size",
          "type": "uint256"
        }
      ],
      "name": "setPayloadSizeLimit",
      "outputs": [],
      "stateMutability": "nonpayable",
      "type": "function"
    },
    {
      "inputs": [
        {
          "internalType": "address",
          "name": "_precrime",
          "type": "address"
        }
      ],
      "name": "setPrecrime",
      "outputs": [],
      "stateMutability": "nonpayable",
      "type": "function"
    },
    {
      "inputs": [
        {
          "internalType": "uint16",
          "name": "_version",
          "type": "uint16"
        }
      ],
      "name": "setReceiveVersion",
      "outputs": [],
      "stateMutability": "nonpayable",
      "type": "function"
    },
    {
      "inputs": [
        {
          "internalType": "uint16",
          "name": "_version",
          "type": "uint16"
        }
      ],
      "name": "setSendVersion",
      "outputs": [],
      "stateMutability": "nonpayable",
      "type": "function"
    },
    {
      "inputs": [
        {
          "internalType": "uint16",
          "name": "_remoteChainId",
          "type": "uint16"
        },
        {
          "internalType": "bytes",
          "name": "_path",
          "type": "bytes"
        }
      ],
      "name": "setTrustedRemote",
      "outputs": [],
      "stateMutability": "nonpayable",
      "type": "function"
    },
    {
      "inputs": [
        {
          "internalType": "uint16",
          "name": "_remoteChainId",
          "type": "uint16"
        },
        {
          "internalType": "bytes",
          "name": "_remoteAddress",
          "type": "bytes"
        }
      ],
      "name": "setTrustedRemoteAddress",
      "outputs": [],
      "stateMutability": "nonpayable",
      "type": "function"
    },
    {
      "inputs": [
        {
          "internalType": "bytes32",
          "name": "",
          "type": "bytes32"
        }
      ],
      "name": "storedCredits",
      "outputs": [
        {
          "internalType": "uint16",
          "name": "srcChainId",
          "type": "uint16"
        },
        {
          "internalType": "address",
          "name": "toAddress",
          "type": "address"
        },
        {
          "internalType": "uint256",
          "name": "index",
          "type": "uint256"
        },
        {
          "internalType": "bool",
          "name": "creditsRemain",
          "type": "bool"
        }
      ],
      "stateMutability": "view",
      "type": "function"
    },
    {
      "inputs": [
        {
          "internalType": "bytes4",
          "name": "interfaceId",
          "type": "bytes4"
        }
      ],
      "name": "supportsInterface",
      "outputs": [
        {
          "internalType": "bool",
          "name": "",
          "type": "bool"
        }
      ],
      "stateMutability": "view",
      "type": "function"
    },
    {
      "inputs": [],
      "name": "symbol",
      "outputs": [
        {
          "internalType": "string",
          "name": "",
          "type": "string"
        }
      ],
      "stateMutability": "view",
      "type": "function"
    },
    {
      "inputs": [
        {
          "internalType": "uint256",
          "name": "tokenId",
          "type": "uint256"
        }
      ],
      "name": "tokenURI",
      "outputs": [
        {
          "internalType": "string",
          "name": "",
          "type": "string"
        }
      ],
      "stateMutability": "view",
      "type": "function"
    },
    {
      "inputs": [
        {
          "internalType": "address",
          "name": "from",
          "type": "address"
        },
        {
          "internalType": "address",
          "name": "to",
          "type": "address"
        },
        {
          "internalType": "uint256",
          "name": "tokenId",
          "type": "uint256"
        }
      ],
      "name": "transferFrom",
      "outputs": [],
      "stateMutability": "nonpayable",
      "type": "function"
    },
    {
      "inputs": [
        {
          "internalType": "address",
          "name": "newOwner",
          "type": "address"
        }
      ],
      "name": "transferOwnership",
      "outputs": [],
      "stateMutability": "nonpayable",
      "type": "function"
    },
    {
      "inputs": [
        {
          "internalType": "uint16",
          "name": "",
          "type": "uint16"
        }
      ],
      "name": "trustedRemoteLookup",
      "outputs": [
        {
          "internalType": "bytes",
          "name": "",
          "type": "bytes"
        }
      ],
      "stateMutability": "view",
      "type": "function"
    },
    {
      "inputs": [
        {
          "internalType": "address",
          "name": "",
          "type": "address"
        }
      ],
      "name": "whitelist",
      "outputs": [
        {
          "internalType": "bool",
          "name": "",
          "type": "bool"
        }
      ],
      "stateMutability": "view",
      "type": "function"
    }
  ],
  "transactionHash": "0x4719cfb7d5b2ee00b3411c61ab8a7b9287dae5c09d58268a130f2fd86d46fcc1",
  "args": [
    "0xbfD2135BFfbb0B5378b56643c2Df8a87552Bfa23",
    7,
    8,
    0
  ],
  "numDeployments": 3,
  "solcInputHash": "140dadce9f5689c548775c72fdbb9fba",
  "bytecode": "0x60e0604052600a60a0819052694f6d6e69446f67676f7360b01b60c09081526200002d9160139190620003c3565b506040805180820190915260028082526113d160f21b60209092019182526200005991601491620003c3565b50612710601555636451863b601a5560405180608001604052806044815260200162005d316044913980516200009891601b91602090910190620003c3565b5060405180608001604052806044815260200162005d75604491398051620000c991601c91602090910190620003c3565b50604080518082019091526004808252632e706e6760e01b6020909201918252620000f791601d91620003c3565b5060408051808201909152600580825264173539b7b760d91b60209092019182526200012691601e91620003c3565b503480156200013457600080fd5b5060405162005db938038062005db9833981016040819052620001579162000469565b601380546200016690620004b6565b80601f01602080910402602001604051908101604052809291908181526020018280546200019490620004b6565b8015620001e55780601f10620001b957610100808354040283529160200191620001e5565b820191906000526020600020905b815481529060010190602001808311620001c757829003601f168201915b505050505060148054620001f990620004b6565b80601f01602080910402602001604051908101604052809291908181526020018280546200022790620004b6565b8015620002785780601f106200024c5761010080835404028352916020019162000278565b820191906000526020600020905b8154815290600101906020018083116200025a57829003601f168201915b505050505060155486838383838080620002a16200029b6200036f60201b60201c565b62000373565b6001600160a01b031660805250600160065581620003115760405162461bcd60e51b8152602060048201526024808201527f6d696e476173546f5472616e73666572416e6453746f7265206d7573742062656044820152630203e20360e41b606482015260840160405180910390fd5b5060075581516200032a90600b906020850190620003c3565b5080516200034090600c906020840190620003c3565b5050601280546001600160a01b03191633179055505050601692909255505060179190915560185550620004f3565b3390565b600080546001600160a01b038381166001600160a01b0319831681178455604051919092169283917f8be0079c531659141344cd1fd0a4f28419497f9722a3daafe3b4186f6b6457e09190a35050565b828054620003d190620004b6565b90600052602060002090601f016020900481019282620003f5576000855562000440565b82601f106200041057805160ff191683800117855562000440565b8280016001018555821562000440579182015b828111156200044057825182559160200191906001019062000423565b506200044e92915062000452565b5090565b5b808211156200044e576000815560010162000453565b600080600080608085870312156200048057600080fd5b84516001600160a01b03811681146200049857600080fd5b60208601516040870151606090970151919890975090945092505050565b600181811c90821680620004cb57607f821691505b60208210811415620004ed57634e487b7160e01b600052602260045260246000fd5b50919050565b6080516157ea6200054760003960008181610acf01528181610daa015281816110be0152818161150b015281816117ca015281816125bd01528181612b0501528181612c5a0152613e5d01526157ea6000f3fe60806040526004361061040f5760003560e01c8063950c8a741161021e578063c62ad54511610123578063df2a5b3b116100ab578063eb8d72b71161007a578063eb8d72b714610cfa578063f235364114610d1a578063f2fde38b14610d3a578063f5ecbdbc14610d5a578063fa25f9b614610d7a57600080fd5b8063df2a5b3b14610c5b578063e1d4c87014610c7b578063e43252d714610c91578063e985e9c514610cb157600080fd5b8063ca800144116100f2578063ca80014414610bd3578063cbed8b9c14610bf3578063d12473a514610c13578063d1deba1f14610c33578063d38d002814610c4657600080fd5b8063c62ad54514610b5d578063c6b19f2814610b7d578063c87b56dd14610b9d578063ca0dcf1614610bbd57600080fd5b8063a22cb465116101a6578063b353aaa711610175578063b353aaa714610abd578063b7a8807c14610af1578063b88d4fde14610b07578063baf3292d14610b27578063c446183414610b4757600080fd5b8063a22cb46514610a42578063a6c3d16514610a62578063ab3ffb9314610a82578063af3fb21c14610a9557600080fd5b80639b3a252b116101ed5780639b3a252b146109c55780639d7a9f68146109da5780639ea5d6b1146109ef5780639f38369a14610a0f578063a144819414610a2f57600080fd5b8063950c8a741461094b57806395d89b411461096b57806396f0bd61146109805780639b19251a1461099557600080fd5b80633f1f4fa41161032457806366ad5c8a116102ac5780637533d7881161027b5780637533d788146108955780638c10671c146108b55780638cfd8f5c146108d55780638da5cb5b1461090d5780638ffa1f2a1461092b57600080fd5b806366ad5c8a1461082a5780636aa99da31461084a57806370a0823114610860578063715018a61461088057600080fd5b806348288190116102f357806348288190146107655780634ac3f4ff1461077b57806351905636146107a85780635b8c41e6146107bb5780636352211e1461080a57600080fd5b80633f1f4fa4146106d857806342842e0e1461070557806342966c681461072557806342d65a8d1461074557600080fd5b80630df37483116103a7578063188bd5aa11610376578063188bd5aa146105cb57806322a3ecf9146105e057806323b872dd146106635780632a205e3d146106835780633d8b38f6146106b857600080fd5b80630df374831461055257806310ddb1371461057257806313ca9aa01461059257806315cb83de146105b657600080fd5b8063081812fc116103e3578063081812fc146104ad57806308a5d0ad146104e5578063095ea7b3146105125780630b4cad4c1461053257600080fd5b80621d35671461041457806301ffc9a71461043657806306fdde031461046b57806307e0db171461048d575b600080fd5b34801561042057600080fd5b5061043461042f3660046146c1565b610da7565b005b34801561044257600080fd5b5061045661045136600461476a565b610fd8565b60405190151581526020015b60405180910390f35b34801561047757600080fd5b50610480610fe9565b60405161046291906147df565b34801561049957600080fd5b506104346104a83660046147f2565b61107b565b3480156104b957600080fd5b506104cd6104c836600461480d565b611126565b6040516001600160a01b039091168152602001610462565b3480156104f157600080fd5b50610505610500366004614846565b6111ae565b604051610462919061489e565b34801561051e57600080fd5b5061043461052d3660046148b1565b6112af565b34801561053e57600080fd5b5061043461054d36600461480d565b6113c5565b34801561055e57600080fd5b5061043461056d3660046148dd565b611487565b34801561057e57600080fd5b5061043461058d3660046147f2565b6114c8565b34801561059e57600080fd5b506105a860155481565b604051908152602001610462565b3480156105c257600080fd5b50610480611542565b3480156105d757600080fd5b506017546105a8565b3480156105ec57600080fd5b506106346105fb36600461480d565b600a6020526000908152604090208054600182015460029092015461ffff821692620100009092046001600160a01b0316919060ff1684565b6040805161ffff90951685526001600160a01b0390931660208501529183015215156060820152608001610462565b34801561066f57600080fd5b5061043461067e3660046148f9565b6115d0565b34801561068f57600080fd5b506106a361069e366004614a0d565b611602565b60408051928352602083019190915201610462565b3480156106c457600080fd5b506104566106d3366004614a9b565b611628565b3480156106e457600080fd5b506105a86106f33660046147f2565b60036020526000908152604090205481565b34801561071157600080fd5b506104346107203660046148f9565b6116f4565b34801561073157600080fd5b5061043461074036600461480d565b61170f565b34801561075157600080fd5b50610434610760366004614a9b565b611789565b34801561077157600080fd5b506105a860075481565b34801561078757600080fd5b506105a86107963660046147f2565b60086020526000908152604090205481565b6104346107b6366004614aed565b611831565b3480156107c757600080fd5b506105a86107d6366004614ba6565b6005602090815260009384526040808520845180860184018051928152908401958401959095209452929052825290205481565b34801561081657600080fd5b506104cd61082536600461480d565b611848565b34801561083657600080fd5b506104346108453660046146c1565b6118bf565b34801561085657600080fd5b506105a860175481565b34801561086c57600080fd5b506105a861087b366004614846565b61199b565b34801561088c57600080fd5b50610434611a22565b3480156108a157600080fd5b506104806108b03660046147f2565b611a58565b3480156108c157600080fd5b506104346108d0366004614c26565b611a71565b3480156108e157600080fd5b506105a86108f0366004614cbf565b600260209081526000928352604080842090915290825290205481565b34801561091957600080fd5b506000546001600160a01b03166104cd565b34801561093757600080fd5b50610434610946366004614cf2565b611b07565b34801561095757600080fd5b506004546104cd906001600160a01b031681565b34801561097757600080fd5b50610480611da0565b34801561098c57600080fd5b506016546105a8565b3480156109a157600080fd5b506104566109b0366004614846565b60196020526000908152604090205460ff1681565b3480156109d157600080fd5b50610480611daf565b3480156109e657600080fd5b50610480611dbc565b3480156109fb57600080fd5b50610434610a0a3660046148dd565b611dc9565b348015610a1b57600080fd5b50610480610a2a3660046147f2565b611ea2565b610434610a3d3660046148b1565b611fb9565b348015610a4e57600080fd5b50610434610a5d366004614d26565b612296565b348015610a6e57600080fd5b50610434610a7d366004614a9b565b6122a1565b610434610a90366004614db8565b612356565b348015610aa157600080fd5b50610aaa600181565b60405161ffff9091168152602001610462565b348015610ac957600080fd5b506104cd7f000000000000000000000000000000000000000000000000000000000000000081565b348015610afd57600080fd5b506105a8601a5481565b348015610b1357600080fd5b50610434610b22366004614e6d565b612365565b348015610b3357600080fd5b50610434610b42366004614846565b612397565b348015610b5357600080fd5b506105a861271081565b348015610b6957600080fd5b50610480610b7836600461480d565b61240f565b348015610b8957600080fd5b50610480610b9836600461480d565b6124e8565b348015610ba957600080fd5b50610480610bb836600461480d565b61253c565b348015610bc957600080fd5b506105a860165481565b348015610bdf57600080fd5b50610434610bee3660046148b1565b612547565b348015610bff57600080fd5b50610434610c0e366004614ed8565b61257c565b348015610c1f57600080fd5b50610434610c2e3660046148dd565b612633565b610434610c413660046146c1565b612705565b348015610c5257600080fd5b5061048061291b565b348015610c6757600080fd5b50610434610c76366004614f46565b612928565b348015610c8757600080fd5b506105a860185481565b348015610c9d57600080fd5b50610434610cac366004614846565b6129fc565b348015610cbd57600080fd5b50610456610ccc366004614f82565b6001600160a01b03918216600090815260106020908152604080832093909416825291909152205460ff1690565b348015610d0657600080fd5b50610434610d15366004614a9b565b612a4a565b348015610d2657600080fd5b506106a3610d35366004614fbb565b612ac6565b348015610d4657600080fd5b50610434610d55366004614846565b612b91565b348015610d6657600080fd5b50610480610d75366004615034565b612c29565b348015610d8657600080fd5b506105a8610d953660046147f2565b60096020526000908152604090205481565b337f00000000000000000000000000000000000000000000000000000000000000006001600160a01b031614610e245760405162461bcd60e51b815260206004820152601e60248201527f4c7a4170703a20696e76616c696420656e64706f696e742063616c6c6572000060448201526064015b60405180910390fd5b61ffff861660009081526001602052604081208054610e4290615081565b80601f0160208091040260200160405190810160405280929190818152602001828054610e6e90615081565b8015610ebb5780601f10610e9057610100808354040283529160200191610ebb565b820191906000526020600020905b815481529060010190602001808311610e9e57829003601f168201915b50505050509050805186869050148015610ed6575060008151115b8015610efe575080516020820120604051610ef490889088906150bc565b6040518091039020145b610f595760405162461bcd60e51b815260206004820152602660248201527f4c7a4170703a20696e76616c696420736f757263652073656e64696e6720636f6044820152651b9d1c9858dd60d21b6064820152608401610e1b565b610fcf8787878080601f01602080910402602001604051908101604052809392919081815260200183838082843760009201919091525050604080516020601f8a018190048102820181019092528881528a935091508890889081908401838280828437600092019190915250612cdc92505050565b50505050505050565b6000610fe382612d55565b92915050565b6060600b8054610ff890615081565b80601f016020809104026020016040519081016040528092919081815260200182805461102490615081565b80156110715780601f1061104657610100808354040283529160200191611071565b820191906000526020600020905b81548152906001019060200180831161105457829003601f168201915b5050505050905090565b6000546001600160a01b031633146110a55760405162461bcd60e51b8152600401610e1b906150cc565b6040516307e0db1760e01b815261ffff821660048201527f00000000000000000000000000000000000000000000000000000000000000006001600160a01b0316906307e0db17906024015b600060405180830381600087803b15801561110b57600080fd5b505af115801561111f573d6000803e3d6000fd5b5050505050565b600061113182612d72565b6111925760405162461bcd60e51b815260206004820152602c60248201527f4552433732313a20617070726f76656420717565727920666f72206e6f6e657860448201526b34b9ba32b73a103a37b5b2b760a11b6064820152608401610e1b565b506000908152600f60205260409020546001600160a01b031690565b606060006111bb8361199b565b90506000816001600160401b038111156111d7576111d761493a565b604051908082528060200260200182016040528015611200578160200160208202803683370190505b5090506000805b838110156112a557856001600160a01b0316601f828154811061122c5761122c615101565b60009182526020909120600160069092020101546001600160a01b0316141561129357601f818154811061126257611262615101565b90600052602060002090600602016000015483838151811061128657611286615101565b6020026020010181815250505b8061129d8161512d565b915050611207565b5090949350505050565b60006112ba82611848565b9050806001600160a01b0316836001600160a01b031614156113285760405162461bcd60e51b815260206004820152602160248201527f4552433732313a20617070726f76616c20746f2063757272656e74206f776e656044820152603960f91b6064820152608401610e1b565b336001600160a01b038216148061134457506113448133610ccc565b6113b65760405162461bcd60e51b815260206004820152603860248201527f4552433732313a20617070726f76652063616c6c6572206973206e6f74206f7760448201527f6e6572206e6f7220617070726f76656420666f7220616c6c00000000000000006064820152608401610e1b565b6113c08383612d8f565b505050565b6000546001600160a01b031633146113ef5760405162461bcd60e51b8152600401610e1b906150cc565b6000811161144b5760405162461bcd60e51b8152602060048201526024808201527f6d696e476173546f5472616e73666572416e6453746f7265206d7573742062656044820152630203e20360e41b6064820152608401610e1b565b60078190556040518181527ffebbc4f8bb9ec2313950c718d43123124b15778efda4c1f1d529de2995b4f34d906020015b60405180910390a150565b6000546001600160a01b031633146114b15760405162461bcd60e51b8152600401610e1b906150cc565b61ffff909116600090815260036020526040902055565b6000546001600160a01b031633146114f25760405162461bcd60e51b8152600401610e1b906150cc565b6040516310ddb13760e01b815261ffff821660048201527f00000000000000000000000000000000000000000000000000000000000000006001600160a01b0316906310ddb137906024016110f1565b601b805461154f90615081565b80601f016020809104026020016040519081016040528092919081815260200182805461157b90615081565b80156115c85780601f1061159d576101008083540402835291602001916115c8565b820191906000526020600020905b8154815290600101906020018083116115ab57829003601f168201915b505050505081565b6115db335b82612dfd565b6115f75760405162461bcd60e51b8152600401610e1b90615148565b6113c0838383612ee3565b60008061161a87876116138861307f565b8787612ac6565b915091509550959350505050565b61ffff83166000908152600160205260408120805482919061164990615081565b80601f016020809104026020016040519081016040528092919081815260200182805461167590615081565b80156116c25780601f10611697576101008083540402835291602001916116c2565b820191906000526020600020905b8154815290600101906020018083116116a557829003601f168201915b5050505050905083836040516116d99291906150bc565b60405180910390208180519060200120149150509392505050565b6113c083838360405180602001604052806000815250612365565b611718336115d5565b61177d5760405162461bcd60e51b815260206004820152603060248201527f4552433732314275726e61626c653a2063616c6c6572206973206e6f74206f7760448201526f1b995c881b9bdc88185c1c1c9bdd995960821b6064820152608401610e1b565b611786816130ca565b50565b6000546001600160a01b031633146117b35760405162461bcd60e51b8152600401610e1b906150cc565b6040516342d65a8d60e01b81526001600160a01b037f000000000000000000000000000000000000000000000000000000000000000016906342d65a8d90611803908690869086906004016151c2565b600060405180830381600087803b15801561181d57600080fd5b505af1158015610fcf573d6000803e3d6000fd5b610fcf8787876118408861307f565b8787876130d3565b6000818152600d60205260408120546001600160a01b031680610fe35760405162461bcd60e51b815260206004820152602960248201527f4552433732313a206f776e657220717565727920666f72206e6f6e657869737460448201526832b73a103a37b5b2b760b91b6064820152608401610e1b565b33301461191d5760405162461bcd60e51b815260206004820152602660248201527f4e6f6e626c6f636b696e674c7a4170703a2063616c6c6572206d7573742062656044820152650204c7a4170760d41b6064820152608401610e1b565b6119938686868080601f01602080910402602001604051908101604052809392919081815260200183838082843760009201919091525050604080516020601f8901819004810282018101909252878152899350915087908790819084018382808284376000920191909152506132a792505050565b505050505050565b60006001600160a01b038216611a065760405162461bcd60e51b815260206004820152602a60248201527f4552433732313a2062616c616e636520717565727920666f7220746865207a65604482015269726f206164647265737360b01b6064820152608401610e1b565b506001600160a01b03166000908152600e602052604090205490565b6000546001600160a01b03163314611a4c5760405162461bcd60e51b8152600401610e1b906150cc565b611a5660006133fe565b565b6001602052600090815260409020805461154f90615081565b6000546001600160a01b03163314611a9b5760405162461bcd60e51b8152600401610e1b906150cc565b60005b8151811015611b0357600160196000848481518110611abf57611abf615101565b6020908102919091018101516001600160a01b03168252810191909152604001600020805460ff191691151591909117905580611afb8161512d565b915050611a9e565b5050565b60026006541415611b5a5760405162461bcd60e51b815260206004820152601f60248201527f5265656e7472616e637947756172643a207265656e7472616e742063616c6c006044820152606401610e1b565b6002600681905581516020808401919091206000818152600a90925260409091209091015460ff16611bc25760405162461bcd60e51b81526020600482015260116024820152701b9bc818dc99591a5d1cc81cdd1bdc9959607a1b6044820152606401610e1b565b600082806020019051810190611bd89190615225565b6000848152600a602052604081208054600190910154929450909250611c149161ffff8216916201000090046001600160a01b0316908561344e565b6000848152600a60205260409020600101549091508111611c895760405162461bcd60e51b815260206004820152602960248201527f6e6f7420656e6f7567682067617320746f2070726f6365737320637265646974604482015268103a3930b739b332b960b91b6064820152608401610e1b565b8151811415611d01576000838152600a602052604080822080546001600160b01b031916815560018101929092556002909101805460ff19169055517fd7be02b8dd0d27bd0517a9cb4d7469ce27df4313821ae5ec1ff69acc594ba23390611cf49085815260200190565b60405180910390a1611d95565b604080516080810182526000858152600a6020818152848320805461ffff80821687526001600160a01b03620100008084048216868a019081529989018b8152600160608b01818152998f90529790965297519851169096026001600160b01b03199091169690951695909517939093178455915191830191909155516002909101805491151560ff199092169190911790555b505060016006555050565b6060600c8054610ff890615081565b601e805461154f90615081565b601d805461154f90615081565b6000546001600160a01b03163314611df35760405162461bcd60e51b8152600401610e1b906150cc565b60008111611e4e5760405162461bcd60e51b815260206004820152602260248201527f647374436861696e4964546f42617463684c696d6974206d757374206265203e604482015261020360f41b6064820152608401610e1b565b61ffff8216600081815260086020908152604091829020849055815192835282018390527f7315f7654d594ead24a30160ed9ba2d23247f543016b918343591e93d7afdb6d91015b60405180910390a15050565b61ffff8116600090815260016020526040812080546060929190611ec590615081565b80601f0160208091040260200160405190810160405280929190818152602001828054611ef190615081565b8015611f3e5780601f10611f1357610100808354040283529160200191611f3e565b820191906000526020600020905b815481529060010190602001808311611f2157829003601f168201915b50505050509050805160001415611f975760405162461bcd60e51b815260206004820152601d60248201527f4c7a4170703a206e6f20747275737465642070617468207265636f72640000006044820152606401610e1b565b611fb2600060148351611faa91906152df565b8391906134a0565b9392505050565b80600881108015611fca5750600081115b611fd357600080fd5b601854600183601754611fe691906152f6565b611ff091906152df565b111561203e5760405162461bcd60e51b815260206004820152601960248201527f4d696e746564206f7574206f6e207468697320636861696e21000000000000006044820152606401610e1b565b60005b828110156122905760178054908190600061205b8361512d565b919050555061206a85826135ad565b6000612075826135c7565b90506000601b82601d604051602001612090939291906153a8565b60405160208183030381529060405290506000601c83601e6040516020016120ba939291906153a8565b60405160208183030381529060405290506120d584826136c6565b6040805160c0810182528581523360208083019182523493830193845260608301858152608084018790524260a0850152601f805460018101825560009190915284517fa03837a25210ee280c2113ff4b77ca23440b19d4866cca721c801278fd08d807600690920291820190815593517fa03837a25210ee280c2113ff4b77ca23440b19d4866cca721c801278fd08d808820180546001600160a01b0319166001600160a01b0390921691909117905594517fa03837a25210ee280c2113ff4b77ca23440b19d4866cca721c801278fd08d809860155518051939492936121e4937fa03837a25210ee280c2113ff4b77ca23440b19d4866cca721c801278fd08d80a01929190910190614508565b5060808201518051612200916004840191602090910190614508565b5060a0820151816005015550508160405161221b91906153d0565b60405180910390208160405161223191906153d0565b6040805191829003822087835234602084015242838301529051909133917fd0ff0e932b314f66b00e9a1e7acfeb31a69a9aa65959ae8e340048a977d037379181900360600190a45050505080806122889061512d565b915050612041565b50505050565b611b03338383613751565b6000546001600160a01b031633146122cb5760405162461bcd60e51b8152600401610e1b906150cc565b8181306040516020016122e0939291906153ec565b60408051601f1981840301815291815261ffff8516600090815260016020908152919020825161231593919290910190614508565b507f8c0400cfe2d1199b1a725c78960bcc2a344d869b80590d0f2bd005db15a572ce838383604051612349939291906151c2565b60405180910390a1505050565b610fcf878787878787876130d3565b61236f3383612dfd565b61238b5760405162461bcd60e51b8152600401610e1b90615148565b61229084848484613820565b6000546001600160a01b031633146123c15760405162461bcd60e51b8152600401610e1b906150cc565b600480546001600160a01b0319166001600160a01b0383169081179091556040519081527f5db758e995a17ec1ad84bdef7e8c3293a0bd6179bcce400dff5d4c3d87db726b9060200161147c565b601f546060906124206001846152df565b1061242a57600080fd5b601f6124376001846152df565b8154811061244757612447615101565b9060005260206000209060060201600301805461246390615081565b80601f016020809104026020016040519081016040528092919081815260200182805461248f90615081565b80156124dc5780601f106124b1576101008083540402835291602001916124dc565b820191906000526020600020905b8154815290600101906020018083116124bf57829003601f168201915b50505050509050919050565b601f546060906124f96001846152df565b1061250357600080fd5b601f6125106001846152df565b8154811061252057612520615101565b9060005260206000209060060201600401805461246390615081565b6060610fe382613853565b6000546001600160a01b031633146125715760405162461bcd60e51b8152600401610e1b906150cc565b611b033383836116f4565b6000546001600160a01b031633146125a65760405162461bcd60e51b8152600401610e1b906150cc565b6040516332fb62e760e21b81526001600160a01b037f0000000000000000000000000000000000000000000000000000000000000000169063cbed8b9c906125fa9088908890889088908890600401615412565b600060405180830381600087803b15801561261457600080fd5b505af1158015612628573d6000803e3d6000fd5b505050505050505050565b6000546001600160a01b0316331461265d5760405162461bcd60e51b8152600401610e1b906150cc565b600081116126b95760405162461bcd60e51b815260206004820152602360248201527f647374436861696e4964546f5472616e73666572476173206d7573742062652060448201526203e20360ec1b6064820152608401610e1b565b61ffff8216600081815260096020908152604091829020849055815192835282018390527fc46df2983228ac2d9754e94a0d565e6671665dc8ad38602bc8e544f0685a29fb9101611e96565b61ffff8616600090815260056020526040808220905161272890889088906150bc565b90815260408051602092819003830190206001600160401b038716600090815292529020549050806127a85760405162461bcd60e51b815260206004820152602360248201527f4e6f6e626c6f636b696e674c7a4170703a206e6f2073746f726564206d65737360448201526261676560e81b6064820152608401610e1b565b8083836040516127b99291906150bc565b6040518091039020146128185760405162461bcd60e51b815260206004820152602160248201527f4e6f6e626c6f636b696e674c7a4170703a20696e76616c6964207061796c6f616044820152601960fa1b6064820152608401610e1b565b61ffff8716600090815260056020526040808220905161283b90899089906150bc565b90815260408051602092819003830181206001600160401b038916600090815290845282902093909355601f880182900482028301820190528682526128d3918991899089908190840183828082843760009201919091525050604080516020601f8a018190048102820181019092528881528a9350915088908890819084018382808284376000920191909152506132a792505050565b7fc264d91f3adc5588250e1551f547752ca0cfa8f6b530d243b9f9f4cab10ea8e5878787878560405161290a959493929190615440565b60405180910390a150505050505050565b601c805461154f90615081565b6000546001600160a01b031633146129525760405162461bcd60e51b8152600401610e1b906150cc565b6000811161299a5760405162461bcd60e51b81526020600482015260156024820152744c7a4170703a20696e76616c6964206d696e47617360581b6044820152606401610e1b565b61ffff83811660008181526002602090815260408083209487168084529482529182902085905581519283528201929092529081018290527f9d5c7c0b934da8fefa9c7760c98383778a12dfbfc0c3b3106518f43fb9508ac090606001612349565b6000546001600160a01b03163314612a265760405162461bcd60e51b8152600401610e1b906150cc565b6001600160a01b03166000908152601960205260409020805460ff19166001179055565b6000546001600160a01b03163314612a745760405162461bcd60e51b8152600401610e1b906150cc565b61ffff83166000908152600160205260409020612a9290838361458c565b507ffa41487ad5d6728f0b19276fa1eddc16558578f5109fc39d2dc33c3230470dab838383604051612349939291906151c2565b60008060008686604051602001612ade92919061547b565b60408051601f198184030181529082905263040a7bb160e41b825291506001600160a01b037f000000000000000000000000000000000000000000000000000000000000000016906340a7bb1090612b42908b90309086908b908b906004016154a9565b6040805180830381865afa158015612b5e573d6000803e3d6000fd5b505050506040513d601f19601f82011682018060405250810190612b8291906154fd565b92509250509550959350505050565b6000546001600160a01b03163314612bbb5760405162461bcd60e51b8152600401610e1b906150cc565b6001600160a01b038116612c205760405162461bcd60e51b815260206004820152602660248201527f4f776e61626c653a206e6577206f776e657220697320746865207a65726f206160448201526564647265737360d01b6064820152608401610e1b565b611786816133fe565b604051633d7b2f6f60e21b815261ffff808616600483015284166024820152306044820152606481018290526060907f00000000000000000000000000000000000000000000000000000000000000006001600160a01b03169063f5ecbdbc90608401600060405180830381865afa158015612ca9573d6000803e3d6000fd5b505050506040513d6000823e601f3d908101601f19168201604052612cd19190810190615521565b90505b949350505050565b600080612d3f5a60966366ad5c8a60e01b89898989604051602401612d049493929190615555565b60408051601f198184030181529190526020810180516001600160e01b03166001600160e01b031990931692909217909152309291906139c2565b9150915081611993576119938686868685613a4c565b60006001600160e01b031982161580610fe35750610fe382613ae9565b6000908152600d60205260409020546001600160a01b0316151590565b6000818152600f6020526040902080546001600160a01b0319166001600160a01b0384169081179091558190612dc482611848565b6001600160a01b03167f8c5be1e5ebec7d5bd14f71427d1e84f3dd0314c0f7b2291e5b200ac8c7c3b92560405160405180910390a45050565b6000612e0882612d72565b612e695760405162461bcd60e51b815260206004820152602c60248201527f4552433732313a206f70657261746f7220717565727920666f72206e6f6e657860448201526b34b9ba32b73a103a37b5b2b760a11b6064820152608401610e1b565b6000612e7483611848565b9050806001600160a01b0316846001600160a01b03161480612eaf5750836001600160a01b0316612ea484611126565b6001600160a01b0316145b80612cd457506001600160a01b0380821660009081526010602090815260408083209388168352929052205460ff16612cd4565b826001600160a01b0316612ef682611848565b6001600160a01b031614612f5a5760405162461bcd60e51b815260206004820152602560248201527f4552433732313a207472616e736665722066726f6d20696e636f72726563742060448201526437bbb732b960d91b6064820152608401610e1b565b6001600160a01b038216612fbc5760405162461bcd60e51b8152602060048201526024808201527f4552433732313a207472616e7366657220746f20746865207a65726f206164646044820152637265737360e01b6064820152608401610e1b565b612fc7600082612d8f565b6001600160a01b0383166000908152600e60205260408120805460019290612ff09084906152df565b90915550506001600160a01b0382166000908152600e6020526040812080546001929061301e9084906152f6565b90915550506000818152600d602052604080822080546001600160a01b0319166001600160a01b0386811691821790925591518493918716917fddf252ad1be2c89b69c2b068fc378daa952ba7f163c4a11628f55a4df523b3ef91a4505050565b604080516001808252818301909252606091600091906020808301908036833701905050905082816000815181106130b9576130b9615101565b602090810291909101015292915050565b61178681613b29565b600084511161311a5760405162461bcd60e51b8152602060048201526013602482015272746f6b656e4964735b5d20697320656d70747960681b6044820152606401610e1b565b83516001148061313e575061ffff8616600090815260086020526040902054845111155b6131955760405162461bcd60e51b815260206004820152602260248201527f62617463682073697a65206578636565647320647374206261746368206c696d6044820152611a5d60f21b6064820152608401610e1b565b60005b84518110156131d8576131c68888888885815181106131b9576131b9615101565b6020026020010151613b69565b806131d08161512d565b915050613198565b50600085856040516020016131ee92919061547b565b6040516020818303038152906040529050613233876001848851600960008d61ffff1661ffff1681526020019081526020016000205461322e9190615593565b613c54565b613241878286868634613d33565b8560405161324f91906153d0565b6040518091039020886001600160a01b03168861ffff167fe1b87c47fdeb4f9cbadbca9df3af7aba453bb6e501075d0440d88125b711522a88604051613295919061489e565b60405180910390a45050505050505050565b600080828060200190518101906132be9190615225565b6014820151919350915060006132d68883838661344e565b905082518110156133aa5784516020808701919091206040805160808101825261ffff808d1682526001600160a01b038088168387019081528385018881526001606086018181526000898152600a909a529887902095518654935190941662010000026001600160b01b03199093169390941692909217178355519082015592516002909301805493151560ff199094169390931790925590517f10e0b70d256bccc84b7027506978bd8b68984a870788b93b479def144c839ad7906133a090839089906155b2565b60405180910390a1505b816001600160a01b0316876040516133c291906153d0565b60405180910390208961ffff167f5b821db8a46f8ecbe1941ba2f51cfeea9643268b56631f70d45e2a745d99026586604051613295919061489e565b600080546001600160a01b038381166001600160a01b0319831681178455604051919092169283917f8be0079c531659141344cd1fd0a4f28419497f9722a3daafe3b4186f6b6457e09190a35050565b6000825b8251811015612cd1576007545a101561346a57612cd1565b61348e868685848151811061348157613481615101565b6020026020010151613ed9565b806134988161512d565b915050613452565b6060816134ae81601f6152f6565b10156134ed5760405162461bcd60e51b815260206004820152600e60248201526d736c6963655f6f766572666c6f7760901b6044820152606401610e1b565b6134f782846152f6565b8451101561353b5760405162461bcd60e51b8152602060048201526011602482015270736c6963655f6f75744f66426f756e647360781b6044820152606401610e1b565b60608215801561355a57604051915060008252602082016040526135a4565b6040519150601f8416801560200281840101858101878315602002848b0101015b8183101561359357805183526020928301920161357b565b5050858452601f01601f1916604052505b50949350505050565b611b03828260405180602001604052806000815250613f39565b6060816135eb5750506040805180820190915260018152600360fc1b602082015290565b8160005b811561361557806135ff8161512d565b915061360e9050600a836155e1565b91506135ef565b6000816001600160401b0381111561362f5761362f61493a565b6040519080825280601f01601f191660200182016040528015613659576020820181803683370190505b508593509050815b83156135a457613672600a856155f5565b61367d9060306152f6565b60f81b8261368a83615609565b9250828151811061369d5761369d615101565b60200101906001600160f81b031916908160001a9053506136bf600a856155e1565b9350613661565b6136cf82612d72565b6137325760405162461bcd60e51b815260206004820152602e60248201527f45524337323155524953746f726167653a2055524920736574206f66206e6f6e60448201526d32bc34b9ba32b73a103a37b5b2b760911b6064820152608401610e1b565b600082815260116020908152604090912082516113c092840190614508565b816001600160a01b0316836001600160a01b031614156137b35760405162461bcd60e51b815260206004820152601960248201527f4552433732313a20617070726f766520746f2063616c6c6572000000000000006044820152606401610e1b565b6001600160a01b03838116600081815260106020908152604080832094871680845294825291829020805460ff191686151590811790915591519182527f17307eab39ab6107e8899845ad3d59bd9653f200f220920489ca2b5937696c31910160405180910390a3505050565b61382b848484612ee3565b61383784848484613f6c565b6122905760405162461bcd60e51b8152600401610e1b90615620565b606061385e82612d72565b6138c45760405162461bcd60e51b815260206004820152603160248201527f45524337323155524953746f726167653a2055524920717565727920666f72206044820152703737b732bc34b9ba32b73a103a37b5b2b760791b6064820152608401610e1b565b600082815260116020526040812080546138dd90615081565b80601f016020809104026020016040519081016040528092919081815260200182805461390990615081565b80156139565780601f1061392b57610100808354040283529160200191613956565b820191906000526020600020905b81548152906001019060200180831161393957829003601f168201915b50505050509050600061397460408051602081019091526000815290565b9050805160001415613987575092915050565b8151156139b95780826040516020016139a1929190615672565b60405160208183030381529060405292505050919050565b612cd484614067565b6000606060008060008661ffff166001600160401b038111156139e7576139e761493a565b6040519080825280601f01601f191660200182016040528015613a11576020820181803683370190505b50905060008087516020890160008d8df191503d925086831115613a33578692505b828152826000602083013e909890975095505050505050565b8180519060200120600560008761ffff1661ffff16815260200190815260200160002085604051613a7d91906153d0565b9081526040805191829003602090810183206001600160401b0388166000908152915220919091557fe183f33de2837795525b4792ca4cd60535bd77c53b7e7030060bfcf5734d6b0c90613ada90879087908790879087906156a1565b60405180910390a15050505050565b60006001600160e01b031982166380ac58cd60e01b1480613b1a57506001600160e01b03198216635b5e139f60e01b145b80610fe35750610fe38261413e565b613b3281614173565b60008181526011602052604090208054613b4b90615081565b15905061178657600081815260116020526040812061178691614600565b613b72336115d5565b613bd55760405162461bcd60e51b815260206004820152602e60248201527f4f4e46543732313a2073656e642063616c6c6572206973206e6f74206f776e6560448201526d1c881b9bdc88185c1c1c9bdd995960921b6064820152608401610e1b565b836001600160a01b0316613be882611848565b6001600160a01b031614613c495760405162461bcd60e51b815260206004820152602260248201527f4f4e46543732313a2073656e642066726f6d20696e636f7272656374206f776e60448201526132b960f11b6064820152608401610e1b565b612290843083612ee3565b6000613c5f8361420e565b61ffff808716600090815260026020908152604080832093891683529290529081205491925090613c919084906152f6565b905060008111613ce35760405162461bcd60e51b815260206004820152601a60248201527f4c7a4170703a206d696e4761734c696d6974206e6f74207365740000000000006044820152606401610e1b565b808210156119935760405162461bcd60e51b815260206004820152601b60248201527f4c7a4170703a20676173206c696d697420697320746f6f206c6f7700000000006044820152606401610e1b565b61ffff861660009081526001602052604081208054613d5190615081565b80601f0160208091040260200160405190810160405280929190818152602001828054613d7d90615081565b8015613dca5780601f10613d9f57610100808354040283529160200191613dca565b820191906000526020600020905b815481529060010190602001808311613dad57829003601f168201915b50505050509050805160001415613e3c5760405162461bcd60e51b815260206004820152603060248201527f4c7a4170703a2064657374696e6174696f6e20636861696e206973206e6f742060448201526f61207472757374656420736f7572636560801b6064820152608401610e1b565b613e4787875161426a565b60405162c5803160e81b81526001600160a01b037f0000000000000000000000000000000000000000000000000000000000000000169063c5803100908490613e9e908b9086908c908c908c908c906004016156f3565b6000604051808303818588803b158015613eb757600080fd5b505af1158015613ecb573d6000803e3d6000fd5b505050505050505050505050565b613ee281612d72565b1580613f0e5750613ef281612d72565b8015613f0e575030613f0382611848565b6001600160a01b0316145b613f1757600080fd5b613f2081612d72565b613f2e576113c082826135ad565b6113c0308383612ee3565b613f4383836142d8565b613f506000848484613f6c565b6113c05760405162461bcd60e51b8152600401610e1b90615620565b60006001600160a01b0384163b1561405f57604051630a85bd0160e11b81526001600160a01b0385169063150b7a0290613fb090339089908890889060040161575a565b6020604051808303816000875af1925050508015613feb575060408051601f3d908101601f19168201909252613fe891810190615797565b60015b614045573d808015614019576040519150601f19603f3d011682016040523d82523d6000602084013e61401e565b606091505b50805161403d5760405162461bcd60e51b8152600401610e1b90615620565b805181602001fd5b6001600160e01b031916630a85bd0160e11b149050612cd4565b506001612cd4565b606061407282612d72565b6140d65760405162461bcd60e51b815260206004820152602f60248201527f4552433732314d657461646174613a2055524920717565727920666f72206e6f60448201526e3732bc34b9ba32b73a103a37b5b2b760891b6064820152608401610e1b565b60006140ed60408051602081019091526000815290565b9050600081511161410d5760405180602001604052806000815250611fb2565b806141178461440b565b604051602001614128929190615672565b6040516020818303038152906040529392505050565b60006001600160e01b031982166322bac5d960e01b1480610fe357506301ffc9a760e01b6001600160e01b0319831614610fe3565b600061417e82611848565b905061418b600083612d8f565b6001600160a01b0381166000908152600e602052604081208054600192906141b49084906152df565b90915550506000828152600d602052604080822080546001600160a01b0319169055518391906001600160a01b038416907fddf252ad1be2c89b69c2b068fc378daa952ba7f163c4a11628f55a4df523b3ef908390a45050565b60006022825110156142625760405162461bcd60e51b815260206004820152601c60248201527f4c7a4170703a20696e76616c69642061646170746572506172616d73000000006044820152606401610e1b565b506022015190565b61ffff82166000908152600360205260409020548061428857506127105b808211156113c05760405162461bcd60e51b815260206004820181905260248201527f4c7a4170703a207061796c6f61642073697a6520697320746f6f206c617267656044820152606401610e1b565b6001600160a01b03821661432e5760405162461bcd60e51b815260206004820181905260248201527f4552433732313a206d696e7420746f20746865207a65726f20616464726573736044820152606401610e1b565b61433781612d72565b156143845760405162461bcd60e51b815260206004820152601c60248201527f4552433732313a20746f6b656e20616c7265616479206d696e746564000000006044820152606401610e1b565b6001600160a01b0382166000908152600e602052604081208054600192906143ad9084906152f6565b90915550506000818152600d602052604080822080546001600160a01b0319166001600160a01b03861690811790915590518392907fddf252ad1be2c89b69c2b068fc378daa952ba7f163c4a11628f55a4df523b3ef908290a45050565b60608161442f5750506040805180820190915260018152600360fc1b602082015290565b8160005b811561445957806144438161512d565b91506144529050600a836155e1565b9150614433565b6000816001600160401b038111156144735761447361493a565b6040519080825280601f01601f19166020018201604052801561449d576020820181803683370190505b5090505b8415612cd4576144b26001836152df565b91506144bf600a866155f5565b6144ca9060306152f6565b60f81b8183815181106144df576144df615101565b60200101906001600160f81b031916908160001a905350614501600a866155e1565b94506144a1565b82805461451490615081565b90600052602060002090601f016020900481019282614536576000855561457c565b82601f1061454f57805160ff191683800117855561457c565b8280016001018555821561457c579182015b8281111561457c578251825591602001919060010190614561565b50614588929150614636565b5090565b82805461459890615081565b90600052602060002090601f0160209004810192826145ba576000855561457c565b82601f106145d35782800160ff1982351617855561457c565b8280016001018555821561457c579182015b8281111561457c5782358255916020019190600101906145e5565b50805461460c90615081565b6000825580601f1061461c575050565b601f01602090049060005260206000209081019061178691905b5b808211156145885760008155600101614637565b803561ffff8116811461465d57600080fd5b919050565b60008083601f84011261467457600080fd5b5081356001600160401b0381111561468b57600080fd5b6020830191508360208285010111156146a357600080fd5b9250929050565b80356001600160401b038116811461465d57600080fd5b600080600080600080608087890312156146da57600080fd5b6146e38761464b565b955060208701356001600160401b03808211156146ff57600080fd5b61470b8a838b01614662565b909750955085915061471f60408a016146aa565b9450606089013591508082111561473557600080fd5b5061474289828a01614662565b979a9699509497509295939492505050565b6001600160e01b03198116811461178657600080fd5b60006020828403121561477c57600080fd5b8135611fb281614754565b60005b838110156147a257818101518382015260200161478a565b838111156122905750506000910152565b600081518084526147cb816020860160208601614787565b601f01601f19169290920160200192915050565b602081526000611fb260208301846147b3565b60006020828403121561480457600080fd5b611fb28261464b565b60006020828403121561481f57600080fd5b5035919050565b6001600160a01b038116811461178657600080fd5b803561465d81614826565b60006020828403121561485857600080fd5b8135611fb281614826565b600081518084526020808501945080840160005b8381101561489357815187529582019590820190600101614877565b509495945050505050565b602081526000611fb26020830184614863565b600080604083850312156148c457600080fd5b82356148cf81614826565b946020939093013593505050565b600080604083850312156148f057600080fd5b6148cf8361464b565b60008060006060848603121561490e57600080fd5b833561491981614826565b9250602084013561492981614826565b929592945050506040919091013590565b634e487b7160e01b600052604160045260246000fd5b604051601f8201601f191681016001600160401b03811182821017156149785761497861493a565b604052919050565b60006001600160401b038211156149995761499961493a565b50601f01601f191660200190565b600082601f8301126149b857600080fd5b81356149cb6149c682614980565b614950565b8181528460208386010111156149e057600080fd5b816020850160208301376000918101602001919091529392505050565b8035801515811461465d57600080fd5b600080600080600060a08688031215614a2557600080fd5b614a2e8661464b565b945060208601356001600160401b0380821115614a4a57600080fd5b614a5689838a016149a7565b955060408801359450614a6b606089016149fd565b93506080880135915080821115614a8157600080fd5b50614a8e888289016149a7565b9150509295509295909350565b600080600060408486031215614ab057600080fd5b614ab98461464b565b925060208401356001600160401b03811115614ad457600080fd5b614ae086828701614662565b9497909650939450505050565b600080600080600080600060e0888a031215614b0857600080fd5b8735614b1381614826565b9650614b216020890161464b565b955060408801356001600160401b0380821115614b3d57600080fd5b614b498b838c016149a7565b965060608a0135955060808a01359150614b6282614826565b90935060a089013590614b7482614826565b90925060c08901359080821115614b8a57600080fd5b50614b978a828b016149a7565b91505092959891949750929550565b600080600060608486031215614bbb57600080fd5b614bc48461464b565b925060208401356001600160401b03811115614bdf57600080fd5b614beb868287016149a7565b925050614bfa604085016146aa565b90509250925092565b60006001600160401b03821115614c1c57614c1c61493a565b5060051b60200190565b60006020808385031215614c3957600080fd5b82356001600160401b03811115614c4f57600080fd5b8301601f81018513614c6057600080fd5b8035614c6e6149c682614c03565b81815260059190911b82018301908381019087831115614c8d57600080fd5b928401925b82841015614cb4578335614ca581614826565b82529284019290840190614c92565b979650505050505050565b60008060408385031215614cd257600080fd5b614cdb8361464b565b9150614ce96020840161464b565b90509250929050565b600060208284031215614d0457600080fd5b81356001600160401b03811115614d1a57600080fd5b612cd4848285016149a7565b60008060408385031215614d3957600080fd5b8235614d4481614826565b9150614ce9602084016149fd565b600082601f830112614d6357600080fd5b81356020614d736149c683614c03565b82815260059290921b84018101918181019086841115614d9257600080fd5b8286015b84811015614dad5780358352918301918301614d96565b509695505050505050565b600080600080600080600060e0888a031215614dd357600080fd5b8735614dde81614826565b9650614dec6020890161464b565b955060408801356001600160401b0380821115614e0857600080fd5b614e148b838c016149a7565b965060608a0135915080821115614e2a57600080fd5b614e368b838c01614d52565b955060808a01359150614e4882614826565b819450614e5760a08b0161483b565b935060c08a0135915080821115614b8a57600080fd5b60008060008060808587031215614e8357600080fd5b8435614e8e81614826565b93506020850135614e9e81614826565b92506040850135915060608501356001600160401b03811115614ec057600080fd5b614ecc878288016149a7565b91505092959194509250565b600080600080600060808688031215614ef057600080fd5b614ef98661464b565b9450614f076020870161464b565b93506040860135925060608601356001600160401b03811115614f2957600080fd5b614f3588828901614662565b969995985093965092949392505050565b600080600060608486031215614f5b57600080fd5b614f648461464b565b9250614f726020850161464b565b9150604084013590509250925092565b60008060408385031215614f9557600080fd5b8235614fa081614826565b91506020830135614fb081614826565b809150509250929050565b600080600080600060a08688031215614fd357600080fd5b614fdc8661464b565b945060208601356001600160401b0380821115614ff857600080fd5b61500489838a016149a7565b9550604088013591508082111561501a57600080fd5b61502689838a01614d52565b9450614a6b606089016149fd565b6000806000806080858703121561504a57600080fd5b6150538561464b565b93506150616020860161464b565b9250604085013561507181614826565b9396929550929360600135925050565b600181811c9082168061509557607f821691505b602082108114156150b657634e487b7160e01b600052602260045260246000fd5b50919050565b8183823760009101908152919050565b6020808252818101527f4f776e61626c653a2063616c6c6572206973206e6f7420746865206f776e6572604082015260600190565b634e487b7160e01b600052603260045260246000fd5b634e487b7160e01b600052601160045260246000fd5b600060001982141561514157615141615117565b5060010190565b60208082526031908201527f4552433732313a207472616e736665722063616c6c6572206973206e6f74206f6040820152701ddb995c881b9bdc88185c1c1c9bdd9959607a1b606082015260800190565b81835281816020850137506000828201602090810191909152601f909101601f19169091010190565b61ffff84168152604060208201526000612cd1604083018486615199565b600082601f8301126151f157600080fd5b81516151ff6149c682614980565b81815284602083860101111561521457600080fd5b612cd4826020830160208701614787565b6000806040838503121561523857600080fd5b82516001600160401b038082111561524f57600080fd5b61525b868387016151e0565b935060209150818501518181111561527257600080fd5b85019050601f8101861361528557600080fd5b80516152936149c682614c03565b81815260059190911b820183019083810190888311156152b257600080fd5b928401925b828410156152d0578351825292840192908401906152b7565b80955050505050509250929050565b6000828210156152f1576152f1615117565b500390565b6000821982111561530957615309615117565b500190565b8054600090600181811c908083168061532857607f831692505b602080841082141561534a57634e487b7160e01b600052602260045260246000fd5b81801561535e576001811461536f5761539c565b60ff1986168952848901965061539c565b60008881526020902060005b868110156153945781548b82015290850190830161537b565b505084890196505b50505050505092915050565b60006153b4828661530e565b84516153c4818360208901614787565b614cb48183018661530e565b600082516153e2818460208701614787565b9190910192915050565b8284823760609190911b6bffffffffffffffffffffffff19169101908152601401919050565b600061ffff808816835280871660208401525084604083015260806060830152614cb4608083018486615199565b61ffff8616815260806020820152600061545e608083018688615199565b6001600160401b0394909416604083015250606001529392505050565b60408152600061548e60408301856147b3565b82810360208401526154a08185614863565b95945050505050565b61ffff861681526001600160a01b038516602082015260a0604082018190526000906154d7908301866147b3565b841515606084015282810360808401526154f181856147b3565b98975050505050505050565b6000806040838503121561551057600080fd5b505080516020909101519092909150565b60006020828403121561553357600080fd5b81516001600160401b0381111561554957600080fd5b612cd4848285016151e0565b61ffff8516815260806020820152600061557260808301866147b3565b6001600160401b03851660408401528281036060840152614cb481856147b3565b60008160001904831182151516156155ad576155ad615117565b500290565b828152604060208201526000612cd460408301846147b3565b634e487b7160e01b600052601260045260246000fd5b6000826155f0576155f06155cb565b500490565b600082615604576156046155cb565b500690565b60008161561857615618615117565b506000190190565b60208082526032908201527f4552433732313a207472616e7366657220746f206e6f6e20455243373231526560408201527131b2b4bb32b91034b6b83632b6b2b73a32b960711b606082015260800190565b60008351615684818460208801614787565b835190830190615698818360208801614787565b01949350505050565b61ffff8616815260a0602082015260006156be60a08301876147b3565b6001600160401b038616604084015282810360608401526156df81866147b3565b905082810360808401526154f181856147b3565b61ffff8716815260c06020820152600061571060c08301886147b3565b828103604084015261572281886147b3565b6001600160a01b0387811660608601528616608085015283810360a0850152905061574d81856147b3565b9998505050505050505050565b6001600160a01b038581168252841660208201526040810183905260806060820181905260009061578d908301846147b3565b9695505050505050565b6000602082840312156157a957600080fd5b8151611fb28161475456fea264697066735822122077c0d640d5bdcc53b64767f6506cdd70b37368deb935bd2dd2b46790c45a342a64736f6c634300080c003368747470733a2f2f697066732e696f2f697066732f516d535839324c626152584a78446f31626b4a4c54746651674e653446414731417553614d5a7058695542776a582f68747470733a2f2f697066732e696f2f697066732f516d665341586d486d367a4b38454e4b735141523344424d68316742427252444668514e3244796878503358704b2f",
  "devdoc": {
    "kind": "dev",
    "methods": {
      "approve(address,uint256)": {
        "details": "See {IERC721-approve}."
      },
      "balanceOf(address)": {
        "details": "See {IERC721-balanceOf}."
      },
      "burn(uint256)": {
        "details": "Burns `tokenId`. See {ERC721-_burn}. Requirements: - The caller must own `tokenId` or be an approved operator."
      },
      "estimateSendBatchFee(uint16,bytes,uint256[],bool,bytes)": {
        "details": "estimate send token `_tokenId` to (`_dstChainId`, `_toAddress`) _dstChainId - L0 defined chain id to send tokens too _toAddress - dynamic bytes array which contains the address to whom you are sending tokens to on the dstChain _tokenIds[] - token Ids to transfer _useZro - indicates to use zro to pay L0 fees _adapterParams - flexible bytes array to indicate messaging adapter services in L0"
      },
      "estimateSendFee(uint16,bytes,uint256,bool,bytes)": {
        "details": "estimate send token `_tokenId` to (`_dstChainId`, `_toAddress`) _dstChainId - L0 defined chain id to send tokens too _toAddress - dynamic bytes array which contains the address to whom you are sending tokens to on the dstChain _tokenId - token Id to transfer _useZro - indicates to use zro to pay L0 fees _adapterParams - flexible bytes array to indicate messaging adapter services in L0"
      },
      "getApproved(uint256)": {
        "details": "See {IERC721-getApproved}."
      },
      "isApprovedForAll(address,address)": {
        "details": "See {IERC721-isApprovedForAll}."
      },
      "name()": {
        "details": "See {IERC721Metadata-name}."
      },
      "owner()": {
        "details": "Returns the address of the current owner."
      },
      "ownerOf(uint256)": {
        "details": "See {IERC721-ownerOf}."
      },
      "renounceOwnership()": {
        "details": "Leaves the contract without owner. It will not be possible to call `onlyOwner` functions anymore. Can only be called by the current owner. NOTE: Renouncing ownership will leave the contract without an owner, thereby removing any functionality that is only available to the owner."
      },
      "safeTransferFrom(address,address,uint256)": {
        "details": "See {IERC721-safeTransferFrom}."
      },
      "safeTransferFrom(address,address,uint256,bytes)": {
        "details": "See {IERC721-safeTransferFrom}."
      },
      "sendBatchFrom(address,uint16,bytes,uint256[],address,address,bytes)": {
        "details": "send tokens `_tokenIds[]` to (`_dstChainId`, `_toAddress`) from `_from` `_toAddress` can be any size depending on the `dstChainId`. `_zroPaymentAddress` set to address(0x0) if not paying in ZRO (LayerZero Token) `_adapterParams` is a flexible bytes array to indicate messaging adapter services"
      },
      "sendFrom(address,uint16,bytes,uint256,address,address,bytes)": {
        "details": "send token `_tokenId` to (`_dstChainId`, `_toAddress`) from `_from` `_toAddress` can be any size depending on the `dstChainId`. `_zroPaymentAddress` set to address(0x0) if not paying in ZRO (LayerZero Token) `_adapterParams` is a flexible bytes array to indicate messaging adapter services"
      },
      "setApprovalForAll(address,bool)": {
        "details": "See {IERC721-setApprovalForAll}."
      },
      "symbol()": {
        "details": "See {IERC721Metadata-symbol}."
      },
      "transferFrom(address,address,uint256)": {
        "details": "See {IERC721-transferFrom}."
      },
      "transferOwnership(address)": {
        "details": "Transfers ownership of the contract to a new account (`newOwner`). Can only be called by the current owner."
      }
    },
    "version": 1
  },
  "userdoc": {
    "kind": "user",
    "methods": {},
    "version": 1
  },
  "storageLayout": {
    "storage": [
      {
        "astId": 7,
        "contract": "contracts/examples/omniDoggos.sol:omniDoggos",
        "label": "_owner",
        "offset": 0,
        "slot": "0",
        "type": "t_address"
      },
      {
        "astId": 2750,
        "contract": "contracts/examples/omniDoggos.sol:omniDoggos",
        "label": "trustedRemoteLookup",
        "offset": 0,
        "slot": "1",
        "type": "t_mapping(t_uint16,t_bytes_storage)"
      },
      {
        "astId": 2756,
        "contract": "contracts/examples/omniDoggos.sol:omniDoggos",
        "label": "minDstGasLookup",
        "offset": 0,
        "slot": "2",
        "type": "t_mapping(t_uint16,t_mapping(t_uint16,t_uint256))"
      },
      {
        "astId": 2760,
        "contract": "contracts/examples/omniDoggos.sol:omniDoggos",
        "label": "payloadSizeLimitLookup",
        "offset": 0,
        "slot": "3",
        "type": "t_mapping(t_uint16,t_uint256)"
      },
      {
        "astId": 2762,
        "contract": "contracts/examples/omniDoggos.sol:omniDoggos",
        "label": "precrime",
        "offset": 0,
        "slot": "4",
        "type": "t_address"
      },
      {
        "astId": 3299,
        "contract": "contracts/examples/omniDoggos.sol:omniDoggos",
        "label": "failedMessages",
        "offset": 0,
        "slot": "5",
        "type": "t_mapping(t_uint16,t_mapping(t_bytes_memory_ptr,t_mapping(t_uint64,t_bytes32)))"
      },
      {
        "astId": 115,
        "contract": "contracts/examples/omniDoggos.sol:omniDoggos",
        "label": "_status",
        "offset": 0,
        "slot": "6",
        "type": "t_uint256"
      },
      {
        "astId": 3835,
        "contract": "contracts/examples/omniDoggos.sol:omniDoggos",
        "label": "minGasToTransferAndStore",
        "offset": 0,
        "slot": "7",
        "type": "t_uint256"
      },
      {
        "astId": 3839,
        "contract": "contracts/examples/omniDoggos.sol:omniDoggos",
        "label": "dstChainIdToBatchLimit",
        "offset": 0,
        "slot": "8",
        "type": "t_mapping(t_uint16,t_uint256)"
      },
      {
        "astId": 3843,
        "contract": "contracts/examples/omniDoggos.sol:omniDoggos",
        "label": "dstChainIdToTransferGas",
        "offset": 0,
        "slot": "9",
        "type": "t_mapping(t_uint16,t_uint256)"
      },
      {
        "astId": 3848,
        "contract": "contracts/examples/omniDoggos.sol:omniDoggos",
        "label": "storedCredits",
        "offset": 0,
        "slot": "10",
        "type": "t_mapping(t_bytes32,t_struct(StoredCredit)3833_storage)"
      },
      {
        "astId": 170,
        "contract": "contracts/examples/omniDoggos.sol:omniDoggos",
        "label": "_name",
        "offset": 0,
        "slot": "11",
        "type": "t_string_storage"
      },
      {
        "astId": 172,
        "contract": "contracts/examples/omniDoggos.sol:omniDoggos",
        "label": "_symbol",
        "offset": 0,
        "slot": "12",
        "type": "t_string_storage"
      },
      {
        "astId": 176,
        "contract": "contracts/examples/omniDoggos.sol:omniDoggos",
        "label": "_owners",
        "offset": 0,
        "slot": "13",
        "type": "t_mapping(t_uint256,t_address)"
      },
      {
        "astId": 180,
        "contract": "contracts/examples/omniDoggos.sol:omniDoggos",
        "label": "_balances",
        "offset": 0,
        "slot": "14",
        "type": "t_mapping(t_address,t_uint256)"
      },
      {
        "astId": 184,
        "contract": "contracts/examples/omniDoggos.sol:omniDoggos",
        "label": "_tokenApprovals",
        "offset": 0,
        "slot": "15",
        "type": "t_mapping(t_uint256,t_address)"
      },
      {
        "astId": 190,
        "contract": "contracts/examples/omniDoggos.sol:omniDoggos",
        "label": "_operatorApprovals",
        "offset": 0,
        "slot": "16",
        "type": "t_mapping(t_address,t_mapping(t_address,t_bool))"
      },
      {
        "astId": 1187,
        "contract": "contracts/examples/omniDoggos.sol:omniDoggos",
        "label": "_tokenURIs",
        "offset": 0,
        "slot": "17",
        "type": "t_mapping(t_uint256,t_string_storage)"
      },
      {
        "astId": 1977,
        "contract": "contracts/examples/omniDoggos.sol:omniDoggos",
        "label": "Owner",
        "offset": 0,
        "slot": "18",
        "type": "t_address"
      },
      {
        "astId": 1980,
        "contract": "contracts/examples/omniDoggos.sol:omniDoggos",
        "label": "_name",
        "offset": 0,
        "slot": "19",
        "type": "t_string_storage"
      },
      {
        "astId": 1983,
        "contract": "contracts/examples/omniDoggos.sol:omniDoggos",
        "label": "_ticker",
        "offset": 0,
        "slot": "20",
        "type": "t_string_storage"
      },
      {
        "astId": 1986,
        "contract": "contracts/examples/omniDoggos.sol:omniDoggos",
        "label": "_minGasToStore",
        "offset": 0,
        "slot": "21",
        "type": "t_uint256"
      },
      {
        "astId": 1988,
        "contract": "contracts/examples/omniDoggos.sol:omniDoggos",
        "label": "mintRate",
        "offset": 0,
        "slot": "22",
        "type": "t_uint256"
      },
      {
        "astId": 1990,
        "contract": "contracts/examples/omniDoggos.sol:omniDoggos",
        "label": "nextMintId",
        "offset": 0,
        "slot": "23",
        "type": "t_uint256"
      },
      {
        "astId": 1992,
        "contract": "contracts/examples/omniDoggos.sol:omniDoggos",
        "label": "maxMintId",
        "offset": 0,
        "slot": "24",
        "type": "t_uint256"
      },
      {
        "astId": 2078,
        "contract": "contracts/examples/omniDoggos.sol:omniDoggos",
        "label": "whitelist",
        "offset": 0,
        "slot": "25",
        "type": "t_mapping(t_address,t_bool)"
      },
      {
        "astId": 2081,
        "contract": "contracts/examples/omniDoggos.sol:omniDoggos",
        "label": "openingTime",
        "offset": 0,
        "slot": "26",
        "type": "t_uint256"
      },
      {
        "astId": 2084,
        "contract": "contracts/examples/omniDoggos.sol:omniDoggos",
        "label": "pngEndpoint",
        "offset": 0,
        "slot": "27",
        "type": "t_string_storage"
      },
      {
        "astId": 2087,
        "contract": "contracts/examples/omniDoggos.sol:omniDoggos",
        "label": "jsonEndpoint",
        "offset": 0,
        "slot": "28",
        "type": "t_string_storage"
      },
      {
        "astId": 2090,
        "contract": "contracts/examples/omniDoggos.sol:omniDoggos",
        "label": "pngExtension",
        "offset": 0,
        "slot": "29",
        "type": "t_string_storage"
      },
      {
        "astId": 2093,
        "contract": "contracts/examples/omniDoggos.sol:omniDoggos",
        "label": "jsonExtension",
        "offset": 0,
        "slot": "30",
        "type": "t_string_storage"
      },
      {
        "astId": 2124,
        "contract": "contracts/examples/omniDoggos.sol:omniDoggos",
        "label": "minted",
        "offset": 0,
        "slot": "31",
        "type": "t_array(t_struct(SaleStruct)2120_storage)dyn_storage"
      }
    ],
    "types": {
      "t_address": {
        "encoding": "inplace",
        "label": "address",
        "numberOfBytes": "20"
      },
      "t_array(t_struct(SaleStruct)2120_storage)dyn_storage": {
        "base": "t_struct(SaleStruct)2120_storage",
        "encoding": "dynamic_array",
        "label": "struct omniDoggos.SaleStruct[]",
        "numberOfBytes": "32"
      },
      "t_bool": {
        "encoding": "inplace",
        "label": "bool",
        "numberOfBytes": "1"
      },
      "t_bytes32": {
        "encoding": "inplace",
        "label": "bytes32",
        "numberOfBytes": "32"
      },
      "t_bytes_memory_ptr": {
        "encoding": "bytes",
        "label": "bytes",
        "numberOfBytes": "32"
      },
      "t_bytes_storage": {
        "encoding": "bytes",
        "label": "bytes",
        "numberOfBytes": "32"
      },
      "t_mapping(t_address,t_bool)": {
        "encoding": "mapping",
        "key": "t_address",
        "label": "mapping(address => bool)",
        "numberOfBytes": "32",
        "value": "t_bool"
      },
      "t_mapping(t_address,t_mapping(t_address,t_bool))": {
        "encoding": "mapping",
        "key": "t_address",
        "label": "mapping(address => mapping(address => bool))",
        "numberOfBytes": "32",
        "value": "t_mapping(t_address,t_bool)"
      },
      "t_mapping(t_address,t_uint256)": {
        "encoding": "mapping",
        "key": "t_address",
        "label": "mapping(address => uint256)",
        "numberOfBytes": "32",
        "value": "t_uint256"
      },
      "t_mapping(t_bytes32,t_struct(StoredCredit)3833_storage)": {
        "encoding": "mapping",
        "key": "t_bytes32",
        "label": "mapping(bytes32 => struct ONFT721Core.StoredCredit)",
        "numberOfBytes": "32",
        "value": "t_struct(StoredCredit)3833_storage"
      },
      "t_mapping(t_bytes_memory_ptr,t_mapping(t_uint64,t_bytes32))": {
        "encoding": "mapping",
        "key": "t_bytes_memory_ptr",
        "label": "mapping(bytes => mapping(uint64 => bytes32))",
        "numberOfBytes": "32",
        "value": "t_mapping(t_uint64,t_bytes32)"
      },
      "t_mapping(t_uint16,t_bytes_storage)": {
        "encoding": "mapping",
        "key": "t_uint16",
        "label": "mapping(uint16 => bytes)",
        "numberOfBytes": "32",
        "value": "t_bytes_storage"
      },
      "t_mapping(t_uint16,t_mapping(t_bytes_memory_ptr,t_mapping(t_uint64,t_bytes32)))": {
        "encoding": "mapping",
        "key": "t_uint16",
        "label": "mapping(uint16 => mapping(bytes => mapping(uint64 => bytes32)))",
        "numberOfBytes": "32",
        "value": "t_mapping(t_bytes_memory_ptr,t_mapping(t_uint64,t_bytes32))"
      },
      "t_mapping(t_uint16,t_mapping(t_uint16,t_uint256))": {
        "encoding": "mapping",
        "key": "t_uint16",
        "label": "mapping(uint16 => mapping(uint16 => uint256))",
        "numberOfBytes": "32",
        "value": "t_mapping(t_uint16,t_uint256)"
      },
      "t_mapping(t_uint16,t_uint256)": {
        "encoding": "mapping",
        "key": "t_uint16",
        "label": "mapping(uint16 => uint256)",
        "numberOfBytes": "32",
        "value": "t_uint256"
      },
      "t_mapping(t_uint256,t_address)": {
        "encoding": "mapping",
        "key": "t_uint256",
        "label": "mapping(uint256 => address)",
        "numberOfBytes": "32",
        "value": "t_address"
      },
      "t_mapping(t_uint256,t_string_storage)": {
        "encoding": "mapping",
        "key": "t_uint256",
        "label": "mapping(uint256 => string)",
        "numberOfBytes": "32",
        "value": "t_string_storage"
      },
      "t_mapping(t_uint64,t_bytes32)": {
        "encoding": "mapping",
        "key": "t_uint64",
        "label": "mapping(uint64 => bytes32)",
        "numberOfBytes": "32",
        "value": "t_bytes32"
      },
      "t_string_storage": {
        "encoding": "bytes",
        "label": "string",
        "numberOfBytes": "32"
      },
      "t_struct(SaleStruct)2120_storage": {
        "encoding": "inplace",
        "label": "struct omniDoggos.SaleStruct",
        "members": [
          {
            "astId": 2109,
            "contract": "contracts/examples/omniDoggos.sol:omniDoggos",
            "label": "id",
            "offset": 0,
            "slot": "0",
            "type": "t_uint256"
          },
          {
            "astId": 2111,
            "contract": "contracts/examples/omniDoggos.sol:omniDoggos",
            "label": "buyer",
            "offset": 0,
            "slot": "1",
            "type": "t_address"
          },
          {
            "astId": 2113,
            "contract": "contracts/examples/omniDoggos.sol:omniDoggos",
            "label": "cost",
            "offset": 0,
            "slot": "2",
            "type": "t_uint256"
          },
          {
            "astId": 2115,
            "contract": "contracts/examples/omniDoggos.sol:omniDoggos",
            "label": "jsonURI",
            "offset": 0,
            "slot": "3",
            "type": "t_string_storage"
          },
          {
            "astId": 2117,
            "contract": "contracts/examples/omniDoggos.sol:omniDoggos",
            "label": "imageURI",
            "offset": 0,
            "slot": "4",
            "type": "t_string_storage"
          },
          {
            "astId": 2119,
            "contract": "contracts/examples/omniDoggos.sol:omniDoggos",
            "label": "timestamp",
            "offset": 0,
            "slot": "5",
            "type": "t_uint256"
          }
        ],
        "numberOfBytes": "192"
      },
      "t_struct(StoredCredit)3833_storage": {
        "encoding": "inplace",
        "label": "struct ONFT721Core.StoredCredit",
        "members": [
          {
            "astId": 3826,
            "contract": "contracts/examples/omniDoggos.sol:omniDoggos",
            "label": "srcChainId",
            "offset": 0,
            "slot": "0",
            "type": "t_uint16"
          },
          {
            "astId": 3828,
            "contract": "contracts/examples/omniDoggos.sol:omniDoggos",
            "label": "toAddress",
            "offset": 2,
            "slot": "0",
            "type": "t_address"
          },
          {
            "astId": 3830,
            "contract": "contracts/examples/omniDoggos.sol:omniDoggos",
            "label": "index",
            "offset": 0,
            "slot": "1",
            "type": "t_uint256"
          },
          {
            "astId": 3832,
            "contract": "contracts/examples/omniDoggos.sol:omniDoggos",
            "label": "creditsRemain",
            "offset": 0,
            "slot": "2",
            "type": "t_bool"
          }
        ],
        "numberOfBytes": "96"
      },
      "t_uint16": {
        "encoding": "inplace",
        "label": "uint16",
        "numberOfBytes": "2"
      },
      "t_uint256": {
        "encoding": "inplace",
        "label": "uint256",
        "numberOfBytes": "32"
      },
      "t_uint64": {
        "encoding": "inplace",
        "label": "uint64",
        "numberOfBytes": "8"
      }
    }
  }
}